:1000000000800020BD01000015420000CD4100002D
:10001000CD410000CD410000CD410000CD410000A8
:10002000CD410000CD410000CD410000154200004F
:1000300015420000CD410000094700000D480000B6
:100040001542000015420000154200001542000054
:100050001542000015420000154200001542000044
:100060001542000015420000154200001542000034
:100070001542000015420000154200001542000024
:100080001542000015420000154200001542000014
:100090001542000015420000154200001542000004
:1000A00015420000154200001542000015420000F4
:1000B00015420000154200001542000015420000E4
:1000C00015420000154200001542000015420000D4
:1000D00015420000154200001542000015420000C4
:1000E00015420000154200001542000015420000B4
:1000F000154200007942000015420000A5430000AF
:1001000015420000D14400001542000015420000D5
:100110001542000015420000154200001542000083
:100120001542000015420000154200001542000073
:100130001542000015420000154200001542000063
:100140001542000015420000154200001542000053
:10015000353F0000493F00005D3F0000713F000057
:1001600059260000E9310000154200001542000048
:100170001542000015420000154200001542000023
:100180001542000015420000154200001542000013
:100190001542000015420000154200001542000003
:1001A00015420000154200001542000015420000F3
:1001B000154200001542000015420000564B4CF25B
:1001C000205210B51A804DF628121A8000BF00BFC9
:1001D00004F024F8514B4FF010621A60504A9A60B4
:1001E000504ADA60504A136813F4807304D14F49BF
:1001F0000B604FF4A85313604D4B1A78110703D5C9
:100200001A7842F008021A704A4B4B492A221A7097
:100210004A4A4B4B8B4204D252F8040F43F8040B6A
:10022000F8E7484B484900228B4202D243F8042B9E
:10023000FAE74649464A002352F8230041F82300D2
:1002400001336F2BF8D1434B434A802103F8011B44
:100250009342FBD1414B3D4A1A60414B8A221A70AE
:10026000A3F5805324225A70A0221A709A7992071B
:10027000FCD59A79D406FCD43A4A937903F00C035E
:10028000082B384BF9D103221A7140225A719A79FE
:100290009006FCD5334A9179324B4906FBD5324A58
:1002A000324911600221516020221A709A7902F0BD
:1002B0000C020C2AFAD12E4B2E4A1A602E4B2F4AD2
:1002C0001A6000225A60072243F8042C2C4AC3F813
:1002D0000C2D62B602F060FE144B1B68DA0705D5E0
:1002E000284802F0DFFD284B284A1A60284B1B786B
:1002F0005B0609D5244C254B22689A4204D121483B
:1003000002F0D0FD0023236004F0C0FD03F08CFF59
:1003100003F038FEFEE700BF0E20054030800440A9
:10032000823F04000100002B10D0034014D0034092
:1003300002D0074000E00740D891FF1F94AE0000B4
:100340002087FF1FD891FF1F3C9AFF1F0082FF1FCD
:100350000000000000E400E05FE400E008ED00E0E1
:100360000050064000400640448004400000030165
:1003700004800440C010050014E000E0FF76010096
:1003800000002020B2F9405B1CE00340A5C3945A52
:1003900000F00740FFFFFFFFFFFFFFFFFFFFFFFF32
:1003A000FFFFFFFFFFFFFFFFFFFFFFFFFFFFFFFF5D
:1003B000FFFFFFFFFFFFFFFFFFFFFFFFFFFFFFFF4D
:1003C000FFFFFFFFFFFFFFFFFFFFFFFFFFFFFFFF3D
:1003D000FFFFFFFFFFFFFFFFFFFFFFFFFFFFFFFF2D
:1003E000FFFFFFFFFFFFFFFFFFFFFFFFFFFFFFFF1D
:1003F000FFFFFFFFFFFFFFFFFFFFFFFFFFFFFFFF0D
:10040000FFFFFFFFFFFFFFFFFFFFFFFFDEF9FFFF23
:1004100010B5054C237833B9044B13B10448AFF33E
:1004200000800123237010BDD891FF1F0000000041
:1004300090AE0000084B10B51BB108490848AFF357
:1004400000800848036803B910BD074B002BFBD0A0
:10045000BDE81040184700BF00000000DC91FF1FFE
:1004600090AE0000D891FF1F0000000038B513487F
:10047000134D144C01F014FB134801F0EFFA0F4830
:1004800001F0DAFD114A12491378002BFCD00B78E9
:100490009B07F9D02B6820681B1A182BF4D90D4B39
:1004A0000D4A0E490E4800F0E5FE0E48002100F00E
:1004B000DDFB0C48BDE8384000F0DCBBBC96FF1FFC
:1004C0004897FF1F349AFF1FA496FF1F2C98FF1F09
:1004D0004498FF1F1CAA00000CAA0000D4A2000030
:1004E000D093FF1F9492FF1F08B5084800F052FFF9
:1004F000074800F0E3FC18B10549064800F0C0FDCC
:100500000548BDE8084000F0B5BB00BFD093FF1F11
:10051000A093FF1FCC93FF1F9492FF1F00B370B5F1
:100520000378202B044603D114F8013F202BFBD085
:100530000E462021054605F0EBFA20B1001B306085
:1005400060B1204670BD2321284605F0E1FA00285D
:10055000F4D1284605F0B4FC2844EFE7002070BD34
:100560000020704788B100B583B001A9FFF7D6FF1E
:1005700068B1019BC25C202A184403D110F8013FE6
:10058000202BFBD003B05DF804FB00207047002057
:10059000F8E700BF00B583B001A900F071FC10B10D
:1005A0000198FFF7DFFF03B05DF804FB10B32DE9FE
:1005B000F04383B001A9FFF7B1FF054680B1019F69
:1005C0000D4E002456F83410DFF82C903A46284699
:1005D00005F0E4FC4FEAC408013428B10A2CF1D13B
:1005E000064803B0BDE8F083C844D8F8040003B05F
:1005F000BDE8F08301487047F491FF1F3487FF1F67
:1006000000B583B001A900F03BFC18B9044803B061
:100610005DF804FB0198FFF7C9FF03B05DF804FB28
:100620003487FF1FF0B4154B154E164D164C174866
:100630001749184A184F1E605D60184E184D9C608F
:10064000D860184C184819615A611849184A9F61B6
:10065000DE61184F184E1D625C62184D184C98628E
:10066000D962184818491A63184A5F639E63DD63AC
:100670001C6458649964DA64F0BC7047F491FF1FFD
:1006800008A300002487FF1FECA200002887FF1F9B
:100690000CA300004087FF1FF0A200002C87FF1F63
:1006A00020A300004887FF1F00A300003887FF1F1A
:1006B000F8A200005887FF1FF4A200004487FF1F24
:1006C00014A300003087FF1F18A300003C87FF1F02
:1006D000002070470020704710B508460C4605F012
:1006E000EFFB022821D0032811D018BB1A4B1A782F
:1006F00082F001021A701949194B1A48002A0CBFDE
:100700001A460A46BDE81040174900F013BB2046C0
:10071000164905F069FA68B90F4B114A1870124969
:100720001048BDE8104000F005BB2046104905F018
:100730005BFA30B10F490B4800F058FB064B1A78B2
:10074000D9E7054B054A074801211970BDE810405B
:10075000054900F0EFBA00BFA093FF1F28A30000D7
:1007600030A300009492FF1F58A3000040A3000094
:100770003CA3000044A30000002070470020704705
:1007800010B508460C4605F09BFB022821D0032833
:1007900011D018BB1A4B5A7882F001025A701949CD
:1007A000194B1A48002A0CBF1A460A46BDE81040E9
:1007B000174900F0BFBA2046164905F015FA68B986
:1007C0000F4B114A587012491048BDE8104000F014
:1007D000B1BA2046104905F007FA30B10F490B486D
:1007E00000F004FB064B5A78D9E7054B054A074849
:1007F00001215970BDE81040054900F09BBA00BFC7
:10080000A093FF1F28A3000030A300009492FF1FB5
:100810007CA3000040A300003CA3000044A3000010
:100820000120704701207047087818B90146064832
:1008300000F09ABA08B5044800F0F2F9BDE80840A3
:100840000146014800F090BA9492FF1F034B044AFE
:1008500093F90B300349044800F00CBDA496FF1F28
:1008600034A40000E8A30000D093FF1F034B044A08
:1008700093F90A300349044800F0FCBCA496FF1F1A
:10088000BCA30000E8A30000D093FF1F034B044A61
:1008900093F90C300349044800F0ECBCA496FF1F08
:1008A000E4A40000E8A30000D093FF1F30B4064A80
:1008B000064CD57C064B074A07490848002D08BF5F
:1008C000234630BC00F0D6BCA496FF1F18A400003D
:1008D000DCA400003CA400001CA40000D093FF1F77
:1008E000034B044A93F90E300349044800F0C2BC9C
:1008F000A496FF1FC8A30000E8A30000D093FF1F29
:10090000034B044A93F90D300349044800F0B2BC8C
:10091000A496FF1F48A40000E8A30000D093FF1F87
:10092000034B044A93F90F300349044800F0A2BC7A
:10093000A496FF1FECA40000E8A30000D093FF1FC3
:1009400030B4064A064C157D064B074A074908484D
:10095000002D08BF234630BC00F08CBCA496FF1FBE
:1009600018A40000DCA40000F8A300001CA40000F0
:10097000D093FF1F70B5304C304A94F90B3030499A
:100980003048314E314D00F075FC94F90A30304A50
:100990002B492C4800F06EFC94F90C302D4A284964
:1009A000284800F067FCE37C2B4A2C492548002BA3
:1009B00014BF33462B4600F05DFC94F90E30284AF4
:1009C0001F49204800F056FC94F90D30254A1C4977
:1009D0001C4800F04FFC94F90F30234A184919487D
:1009E00000F048FC237D214A1C491648002B14BF07
:1009F00033462B4600F03EFC237C1D4A1749114824
:100A0000002B14BF33462B4600F034FC637C194A9C
:100A100012490C48002B14BF33462B4600F02AFC29
:100A2000A37C154A0D490748002B14BF33462B46BB
:100A3000BDE8704000F01EBCA496FF1F34A4000067
:100A4000E8A30000D093FF1FDCA4000018A400005E
:100A5000BCA30000E4A400003CA400001CA400000F
:100A6000C8A3000048A40000ECA40000F8A3000004
:100A7000D0A30000DCA3000060A400002DE9F04733
:100A800082B008468A4601A900F04CFF019D35B3AB
:100A9000164F0646002457F83410DFF850902A46C7
:100AA000304605F07BFA4FEAC408013448B10A2CFD
:100AB000F1D132460E490F4800F0DCFB02B0BDE830
:100AC000F08732460C490D4800F034F9C8440198CB
:100AD000D8F804305044984702B0BDE8F087084980
:100AE000044800F0C7FB02B0BDE8F0874492FF1F46
:100AF0009CA40000D093FF1F90A400009492FF1FBD
:100B00006CA4000070B584B00DF10F01019001A834
:100B100000F02EFF90B19DF80F400B4E0B4A0C4D8C
:100B200052F824200B4B0C490C483444247C002CF4
:100B300008BF2B4600F09EFB04B070BD0849074873
:100B400000F098FB04B070BDA496FF1F54A40000F1
:100B500018A40000DCA400001CA40000D093FF1F18
:100B6000C0A40000F0B4154B154E164D164C174896
:100B70001749184A184F1E605D60184E184D9C604A
:100B8000D860184C184819615A611849184A9F6171
:100B9000DE61184F184E1D625C62184D184C986249
:100BA000D962184818491A63184A5F639E63DD6367
:100BB0001C6458649964DA64F0BC70474492FF1F67
:100BC00034A400004D080000BCA300006D08000024
:100BD000E4A400008D0800003CA40000AD08000063
:100BE000C8A30000E108000048A4000001090000BB
:100BF000ECA4000021090000F8A300004109000056
:100C00002CA40000050B0000E0A400007509000002
:100C10000149024800F074BBF4A40000D093FF1F08
:100C200010B508460C460D4904F04EFF50B10C4972
:100C3000204604F049FF30B10A49204604F044FF41
:100C400018B9022010BD012010BD2046064904F04D
:100C50003BFF00280CBF0320042010BD34A500007A
:100C60004CA500003CA5000064A5000080F8081118
:100C7000704700BFD0F80021D0F804319A4214D058
:100C800010B50446D4F800010121204402F0E0FF31
:100C9000D4F800310133DBB2C4F80031D4F80021BC
:100CA000D4F804319A42EDD110BD70472DE9F041DE
:100CB0000446A0B00846174698460E4605F000F9CF
:100CC00031460546421C684601F03CFD43463A4623
:100CD000C5F17E010DEB050006F0BEFEE0B120ABD4
:100CE00005441D4494F808310A21002205F8801CAF
:100CF00005F87F2C9BB19DF800206AB16946D4F8B5
:100D00000431E254D4F8043111F8012F0133DBB27D
:100D1000C4F80431002AF2D120B0BDE8F081684661
:100D200005F0CEF80146684602F092FF20B0BDE81B
:100D3000F08100BF0EB410B590F8093183B023B133
:100D400003B0BDE8104003B0704706AC2346059AD7
:100D500004490194FFF7AAFF03B0BDE8104003B0B7
:100D6000704700BF9CA50000032998BF044B80F882
:100D7000091194BF53F82120024A0349FFF7DABF53
:100D80006CA5000044A5000020A500000EB410B51D
:100D900090F80931012B83B004D903B0BDE81040AD
:100DA00003B0704706AC2346059A02490194FFF749
:100DB0007DFFF2E754A500000EB410B590F809319C
:100DC000022B83B004D903B0BDE8104003B07047D4
:100DD00006AC2346059A04490194FFF767FF03B068
:100DE000BDE8104003B070477CA500000EB410B5FC
:100DF00090F80931032B83B004D903B0BDE810404B
:100E000003B0704706AC2346059A04490194FFF7E6
:100E10004DFF03B0BDE8104003B070478CA5000043
:100E2000064B002201200221C3F8002183F80801AB
:100E300083F80911C3F80421704700BF9492FF1F83
:100E4000816A89B1436A13B90A48FFF7CFBF10B569
:100E50000446821C08490748FFF7C8FFA16A0548F5
:100E6000BDE81040FFF7C2BF821C04490148FFF7EC
:100E700061BF00BF9492FF1FACA50000CCA500008D
:100E8000831C0B60406A7047821C10B51F23044608
:100E90000A21094803F09EF82318002260629A7024
:100EA00000B910BD02F092FE0A2801D0012010BD49
:100EB00002F068FE012010BD7487FF1F002310B5EB
:100EC0008362044602F082FE431C08D00A2804D044
:100ED0002046BDE81040FFF7D7BF02F053FE0020C8
:100EE00010BD00BF03786BB1416A032908D9CB1E3E
:100EF00003449A78232A07D0114B8362002070475D
:100F0000002070470120704770B50025861C0C1F1B
:100F10009D703444431C13F8012FA34285EA020557
:100F2000F9D10446881E30441022002105F0ECF966
:100F3000A84203D0034BA362002070BD012070BD06
:100F4000E4A5000000A600002DE9F041804684B031
:100F500008460D4604F0B4FF0646002841D000279D
:100F60003C46311B281902F073FE0444A64207F1E7
:100F70000107F6D898F80030A3B12946A819002334
:100F800011F8012B884283EA0203F9D100931A4A2F
:100F90002323042103A804F049FD03A8032102F040
:100FA00057FE04440A2002F0D7FE04443B4613488F
:100FB00013492246FFF7BEFE98F8000050B1321DDB
:100FC000944204D00D480F49FFF710FF002004B0F1
:100FD000BDE8F081721C9442F4D1012004B0BDE858
:100FE000F08198F800301BB1334634463746CDE7E0
:100FF00007460446D6E700BF14A600009492FF1FE0
:101000001CA6000038A6000070B506460D46032455
:1010100029463046FFF798FF08B9013CF8D170BD6A
:1010200008B5437803B908BD062002F095FE0128F3
:10103000F9D003490348BDE80840FFF7BDBE00BF33
:1010400074A600009492FF1F08B5437803B908BD49
:10105000152002F081FE0128F9D003490348BDE8BC
:101060000840FFF7A9BE00BF94A600009492FF1F9E
:10107000024B01221A705A70704700BFA093FF1FE5
:1010800070B508460D46FFF7BBFA03681B680446B7
:101090009847A8B923681A4A5B6893422BD119482C
:1010A000FFF7BEFF1748FFF7CBFE236828469D6871
:1010B000FFF770FA2B4601462046BDE870401847FE
:1010C0002846FFF70FFF0028E4D123680C4A5B682D
:1010D000934207D12846FFF7B7FF0A48BDE87040A2
:1010E000FFF7AEBE204698470028F3D10548BDE87B
:1010F0007040FFF7A5BE204698470028D2D0CEE723
:1011000025080000A093FF1F10B506480C460649AD
:1011100001F02AF804B910BD0448BDE8104000F001
:1011200087BF00BFC896FF1F31110000BC96FF1F8C
:1011300010B5094C01212046FFF798FD07490848E2
:1011400001F012F8074800F073FF20460021BDE8C7
:101150001040FFF78BBD00BF9492FF1F31110000BC
:10116000C896FF1FBC96FF1F2DE9F041054682B0CF
:10117000002940D00C460A2201A9204605F0C4F8F7
:10118000019EB442074652D042F2107398420CD9E5
:1011900002462C492C4800F06DF82B682846DB6885
:1011A0000121984702B0BDE8F0810A2201A930462A
:1011B00004F0E0FF019CA64280463AD000F16403AF
:1011C000C82B12D801A90A22204604F0D3FF019BA4
:1011D0009C42064633D000F16403C82B10D9024666
:1011E0001A49194800F046F8D7E702461849164848
:1011F00000F040F8D1E71749134800F03BF8CCE77E
:101200002B68154ADB68934215D11449144800F045
:10121000ABFF72B24FFA88F1124800F0BDFE002F0A
:10122000C0D03A460D490E4800F070FFBAE70E49AB
:10123000E2E70E49E0E7284600219847E9E70C4934
:10124000DAE700BFE8A60000D093FF1F4CA700001C
:101250001CA70000B4A60000091100003111000015
:10126000C896FF1FBC96FF1FD0A6000008A700006D
:1012700038A700000EB400B5A2B023AB02A853F803
:10128000042B0193802106F0E7FB02A90348FFF736
:10129000BBFE22B05DF804EB03B07047A093FF1FC4
:1012A00010B50446407840B204EBC010134602303B
:1012B0000A46802106F0D0FB6278104B52B2013210
:1012C0001340002B10DB5BB26370637822789A4284
:1012D00000D010BD2278094B52B201321340002BCE
:1012E00007DB5BB2237010BD013B63F003030133E6
:1012F000E9E7013B63F003030133F2E703000080F9
:101300000EB410B50446407883B005AB40B204EB90
:10131000C01053F8042B01930230802106F09CFB8F
:101320006278144B52B201321340002B18DB5BB2CF
:101330006370637822789A4204D003B0BDE810400D
:1013400003B0704722780B4B52B201321340002B8E
:101350000BDB5BB2237003B0BDE8104003B07047F5
:10136000013B63F003030133E1E7013B63F0030357
:101370000133EEE7030000800EB400B582B003AA8B
:1013800052F8041B0192FFF78BFF02B05DF804EBEB
:1013900003B07047037842789A421DD010B50446D6
:1013A00005E05BB22370237862789A4213D02178EB
:1013B0000A4849B204EBC1110231FFF725FE227839
:1013C000074B52B201321340002BEADA013B63F0C3
:1013D00003030133E5E710BD704700BFA093FF1F73
:1013E00003000080024B00221A705A70704700BF41
:1013F000D093FF1F014800F0EBBA00BFA496FF1F77
:1014000010B5064C06482146802200F059FD2146C1
:101410000448BDE81040FFF7AFBF00BFD495FF1FE1
:10142000BC96FF1FD093FF1F00B50A2283B0002196
:1014300004F0A0FE10F1160F1BDB104A92F90A30DF
:1014400098420FDD0E490093024601916FF015039B
:101450000C490D48FFF70EFF002003B05DF804EBC8
:10146000FFF7F4B9D072002003B05DF804EBFFF78A
:10147000EDB9024B93F90A30E4E700BFA496FF1FD1
:10148000E4A70000ECA70000D093FF1F10B50A22CC
:10149000002182B004F06EFE0D4A92F90B3092F9F1
:1014A0000C10984201DB884210DD0A4C0091024684
:1014B000019409490948FFF7DDFE094800F0B8FD2D
:1014C000002002B0BDE81040FFF7D0B99072F4E7F9
:1014D000A496FF1FA8A70000ECA70000D093FF1F51
:1014E000BC96FF1F00B50A2283B0002104F042FE23
:1014F0000E4A92F90A30984201DB16280EDD0C4A9A
:1015000001921621024600910A480B49FFF7B2FEEC
:10151000002003B05DF804EBFFF7B8B910730020AA
:1015200003B05DF804EBFFF7B1B900BFA496FF1F4D
:10153000ECA80000D093FF1FECA7000000B50A2222
:1015400083B0002104F016FE10F1160F1BDB104AC9
:1015500092F90A3098420FDD0E490093024601913C
:101560006FF015030C490D48FFF784FE002003B00F
:101570005DF804EBFFF7B4B99073002003B05DF899
:1015800004EBFFF7ADB9024B93F90A30E4E700BF73
:10159000A496FF1FD0A80000ECA70000D093FF1F67
:1015A00010B50378202B044603D114F8013F202BFB
:1015B000FBD003220F49204604F0F0FCB0B1032217
:1015C0000D49204604F0EAFC48B90C4B18750C484C
:1015D00000F02EFD0020BDE81040FFF7B1B9224613
:1015E000084B09490948FFF745FEF0E7034B012284
:1015F0001A75ECE7CCA80000CCA70000A496FF1F4A
:10160000BC96FF1FC0A800001CA80000D093FF1FBD
:1016100010B50A22002182B004F0ACFD0D4A92F907
:101620000E3092F90F10984201DB884210DD0A4C0F
:1016300000910246019409490948FFF71BFE094839
:1016400000F0F6FC002002B0BDE81040FFF758B9EA
:101650005073F4E7A496FF1FB4A70000ECA70000A6
:10166000D093FF1FBC96FF1F00B50A2283B0002154
:1016700004F080FD0E4A92F90D30984201DB1628E5
:101680000EDD0C4A01921621024600910A480B49D0
:10169000FFF7F0FD002003B05DF804EBFFF740B961
:1016A000D073002003B05DF804EBFFF739B900BF39
:1016B000A496FF1FF4A80000D093FF1FECA7000022
:1016C00010B50378202B044603D114F8013F202BDA
:1016D000FBD003220F49204604F060FCB0B1032286
:1016E0000D49204604F05AFC48B90C4BD8740C48FC
:1016F00000F09EFC0020BDE81040FFF7D7B822465E
:10170000084B09490948FFF7B5FDF0E7034B0122F3
:10171000DA74ECE7CCA80000CCA70000A496FF1F69
:10172000BC96FF1FC0A700001CA80000D093FF1F9D
:1017300030B585B0054601900DF10F0101A800F00C
:1017400017F928B3019C2378202B04D1013401948C
:101750002378202BFAD002221449204604F01EFCE4
:1017600078B103221249204604F018FCB0B9114A9E
:101770009DF80F30134418742846FFF7C3F905B0DD
:1017800030BD0C4A9DF80F30134401221A74F3E760
:1017900009490A48FFF76EFD05B030BD22460849E9
:1017A0000648FFF767FD05B030BD00BFCCA80000BC
:1017B000CCA70000A496FF1FC0A40000D093FF1F79
:1017C00044A8000010B5064904460648FFF7B2FADF
:1017D000054800F00DF92046BDE81040FFF7CAB8F3
:1017E00068A800009492FF1FA496FF1F2DE9F04700
:1017F00082B008468A4601A900F094F8019D3DB3E5
:10180000174F0646002457F83410DFF854902A4644
:10181000304604F0C3FB4FEAC408013448B10A2C37
:10182000F1D132460F491048FFF724FD02B0BDE860
:10183000F08732460D490E48FFF77CFA0198C844FC
:101840000130D8F804305044984702B0BDE8F08722
:1018500008490548FFF70EFD02B0BDE8F08700BF5C
:101860005496FF1F9CA80000D093FF1F8CA8000077
:101870009492FF1F6CA40000F0B4154B154E164D4A
:10188000164C17481749184A184F1E605D60184ECD
:10189000184D9C60D860184C184819615A61184955
:1018A000184A9F61DE61184F184E1D625C62184D28
:1018B000184C9862D962184818491A63184A5F632D
:1018C0009E63DD631C6458649964DA64F0BC7047FD
:1018D0005496FF1FE4A7000029140000A8A70000E9
:1018E0008D140000ECA80000E5140000C0A7000063
:1018F000C1160000D0A800003D150000B4A70000EC
:1019000011160000F4A8000069160000C0A800002D
:10191000A1150000DCA7000031170000D0A70000CF
:10192000C517000000230B6008B370B50378202BA7
:10193000044603D114F8013F202BFBD005460E4688
:101940002046202104F0E4F830B1A0421DBF001B66
:1019500030602046002070BD3A21204604F0D8F8BF
:101960000028F2D1284604F0ABFA2844EDE770478E
:1019700060B3F0B5046883B0064620460F4604F015
:101980009FFA78B12518AC420CD02378202B0CD1CB
:10199000631C02E02278202A07D1AB421C4603F1E7
:1019A0000103F7D1002003B0F0BD0A2201A92046AF
:1019B00004F0E0FB019BA34200F1FF30F2D00228CB
:1019C000F0D838700120336003B0F0BD00207047BC
:1019D00008B50021152200F0B1FF03490348BDE816
:1019E0000840FFF7D3B900BF08A900009492FF1F79
:1019F0000E4AF0B4034603CAEA241778186000229E
:101A00001620032601251873D8731F7259605E7261
:101A10009A725A73DC729C73DD741A751A745A7454
:101A20009A741846F0BCFFF7D3BF00BF18A9000096
:101A3000437A022B0BD8002303744374837400236E
:101A4000012203750423C2744372FFF7C1BF032B45
:101A5000F5D004234372FFF7BBBF00BF70B5064645
:101A6000451E0024204600F04FFF0134152C05F8D8
:101A7000010FF7D10849304604F0B6F840B9737A3F
:101A8000022B00D970BD3046BDE87040FFF7D0BFD3
:101A90003046FFF7ADFFF2E7FCA8000000F0ECBE17
:101AA00008B50121062001F023FA0121092001F0E7
:101AB0001FFA0121082001F01BFA0021062001F085
:101AC00003FA0021092001F0FFF90021082001F0AC
:101AD000FBF90121072001F00BFA0121052001F09B
:101AE00007FA01210320BDE8084001F001BA00BF58
:101AF00070B410F1640F9DF80C5049DB6428A8BF46
:101B000064200028C0F2B680002AC0F29E80B42A69
:101B1000A8BFB4224FF46866574C06FB02F184FB61
:101B200001240C44C917C1EBE41404F241446410CD
:101B3000002D6BD0C4F53864002B4FEA4404C0F28A
:101B40009680B42BA8BFB4234FF468614A4E01FBC2
:101B500003F286FB02131344D217C2EBE31202F224
:101B6000414253100DB1C3F53863C4EB4303632BFB
:101B700056DC424A03FB000382FB0320DB17C3EB66
:101B800020131819013000EBD070401070BC704762
:101B90006426002A4EDBB42A4FF46863A8BFB4223F
:101BA000354803FB02F280FB02301044D217C2EB2F
:101BB000E01000F241404010002D3FD0C0F53860E9
:101BC00000294FEA40044FDBB4294FF46862A8BFF4
:101BD000B421294B02FB01F183FB01230B44C917FC
:101BE000C1EBE31101F241414B100DB1C3F5386374
:101BF000C4EB4303632B2DDC204803FB066380FB0F
:101C00000320DB17C3EB20102044BBE7002B4FEA77
:101C1000440496DA4FF40873C4EB4303632BA8DD46
:101C2000174A03FB00F382FB0320DB17C3EB6013AF
:101C30001819A7E74FF40870002DBFD100294FEA0B
:101C40004004C1DA4FF40873D2E74FF40874002D52
:101C5000DCD06FE70A4803FB06F380FB0320DB17A9
:101C6000C3EB601318198DE74FF40873BEE74FF408
:101C7000087378E746428CE7B7600BB6CBF08D2847
:101C80001F85EB51F0B4B0F5087F9DF8106047DB7D
:101C9000B0F5166FA8BF4FF41660002A44DBB42AD3
:101CA000A8BFB4224FF468653E4F05FB02F487FBE2
:101CB00004522244E417C4EBE21202F241425210F1
:101CC0000EB1C2F538628242CCBF00240124B44276
:101CD00034D0002B5CDBB42B4FF46864A8BFB42372
:101CE000304904FB03F381FB03411944DB17C3EBC9
:101CF000E11101F2414149100EB1C1F53861891A73
:101D0000C829A0EB020212DCC82303FB02F292FBFB
:101D1000F1F0013000EBD07040F34700F0BC7047A9
:101D2000002A4FF40870BADA4FF40872C8E7C923E2
:101D3000481C03FB02F292FBF0F0EAE700292CDBDF
:101D4000B4294FF46863A8BFB421164C03FB01F11A
:101D500084FB01430B44C917C1EBE31101F241417C
:101D600049100EB1C1F53861891AC829A0EB0202E9
:101D7000CABFC923C823013103FB02F292FBF1F071
:101D8000013000EBD0704010404240B2F0BC7047D0
:101D90004FF40871002EB2D0AFE74FF40871002E57
:101DA000E2D0DFE7B7600BB6F0B5154C83B00F4655
:101DB0001546064600F030FC237BA27AE17A94F8BF
:101DC00013E0CDF800E05A335A325A315BB252B2C6
:101DD00049B2FFF757FF3870B01D00F01DFCE37BE0
:101DE000627BA17B247D00945A335A325A315BB214
:101DF00052B249B2FFF746FF287003B0F0BD00BFF2
:101E0000A496FF1FF8B52A4D0F461446064600F06B
:101E100003FCEB7C0BB1C0F538602649A0F50873D4
:101E20004FF4616202FB03F381FB0312002802EB13
:101E300003004FEAE373C3EBA023ACBF01204FF0D4
:101E4000FF30034403EBD370401002F0A7FD1A49A2
:101E500002F0ACFE194902F0EBFC3860B01D00F056
:101E6000DBFB2B7D0BB1C0F538601249A0F5087380
:101E70004FF4616202FB03F381FB0312002802EBC3
:101E800003004FEAE373C3EBA023ACBF01204FF084
:101E9000FF30034403EBD370401002F07FFD06498E
:101EA00002F084FE054902F0C3FC2060F8BD00BFCB
:101EB000A496FF1F09CB3D8D000020410000B442D5
:101EC0002DE9F04F95B08846914604460DF1370252
:101ED0000DF13601FFF768FF10AF20460FAA0EA9DB
:101EE000FFF790FF12AE3B46012203210E981E4CD5
:101EF0001E4D00F0C1FD0122334603210F9800F072
:101F0000BBFD07209DF936A09DF937B000F0E2FF38
:101F1000002814BF23462B4605200B9300F0DAFF60
:101F2000002814BF2146294603200A9100F0D2FF61
:101F30000A990B9B0E4A0691002814BF204628469A
:101F40000C4C0D4D04930890039200970296CDF827
:101F500004B053464946404607940595074A03F0A6
:101F600065FD15B0BDE8F08F90A9000048A90000FC
:101F700024A900003CA9000030A900004CA90000E1
:101F800010B5044C204600F0ABFAA01DBDE810408F
:101F900000F0A6BABC96FF1FF0B5234C237B94F843
:101FA0000AE0E67AE57C83B00EF15A0E5A365A33CF
:101FB000174600954FFA8EF205465BB2084671B29D
:101FC000FFF796FDE37B627BA17B06465A33207DBB
:101FD00000905A325A3138465BB252B249B2FFF7DA
:101FE00087FD0746284600F029FBB8B1AC1D204606
:101FF00000F024FB18B90821204600F0F3FA31461E
:10200000284600F0F5FA3946204600F0F1FA074874
:10201000002103B0BDE8F040FFF7F2B909212846DE
:1020200000F0E0FAE2E700BFA496FF1F4087FF1F21
:1020300000221146FFF7B0BF10B50021044606206C
:1020400000F042FF0021072000F03EFF00210520A4
:1020500000F03AFF0021032000F036FF0022204666
:102060001146FFF799FF01210620BDE8104000F05E
:102070002BBF00BF0C290DD808B507480B461146E9
:1020800010F8230000F020FF00210448BDE80840BC
:10209000FFF7B6B9704700BF84A900004087FF1F53
:1020A00008B500210548FFF72FF80548002100F08A
:1020B0006FF90448BDE80840FFF7BEBF3887FF1F2F
:1020C0005887FF1FBC96FF1F026B70B5034600F1D7
:1020D00030061C7844B12AB195689C686D1A641A60
:1020E000A54201D903631A460C33B342F1D14AB178
:1020F00093680846181A044900F0A6F9BDE8704034
:1021000000F0C0B970BD00BFC12100002DE9F04151
:10211000144B82B01B680193164605460F46DDF846
:10212000048000F0C5F900231A46EC5C0C334CB176
:102130000132042AF9D141462846FFF7C5FF02B013
:10214000BDE8F08102EB42029300EA184644012107
:10215000966057602846E9544146FFF7B5FF02B044
:10216000BDE8F0814897FF1FF0B5144B83B01B68A2
:10217000019305460E46019F00F09AF92B6B23B19F
:102180005B68B34201D100232B632B1D002213F89F
:10219000044C14B1186886420AD00132042A03F1B3
:1021A0000C03F4D139462846FFF78EFF03B0F0BD8B
:1021B00002EB420292000023AB54F3E74897FF1F63
:1021C00070B582B000F074F9084C094A236B1268AC
:1021D00001920025019E1D705B689847314620469C
:1021E0002563FFF771FF02B070BD00BFC896FF1FE7
:1021F0004897FF1F08B530220021024803F0C2F9BA
:1022000008BD00BFC896FF1FF0B5054683B0002982
:1022100046D00C460A2201A9204604F075F8019E1A
:10222000B442074641D042F2107398420BD902469D
:1022300020492148FFF71EF82B6828461B69012119
:10224000984703B0F0BD01A90A22304603F092FF7F
:10225000019B9E4200F1FF3429D0022C05D9024691
:1022600016491548FFF706F8E6E72A68E3B228465C
:102270001946D66800221D46B047114B1148234429
:1022800029461A7C82F00102FFF7F4FE002FD8D015
:102290000D4B0E4853F824103A46FFF737FFD0E7AE
:1022A0000B490548FEF7E6FFC6E70A49F9E70A4980
:1022B000F7E700BFE8A60000D093FF1FC8A9000001
:1022C000A496FF1FBC96FF1F4C87FF1FC896FF1FD9
:1022D000B4A60000D0A60000A8A9000038B50446A6
:1022E000084B09480D4653F82410FFF73DFF05B988
:1022F00038BD064B0648234421461A7CBDE83840C9
:10230000FFF7B8BE4C87FF1FC896FF1FA496FF1F9C
:10231000BC96FF1F0229084600D970471146FFF7F7
:10232000DDBF00BF10B5074C01212046FEF79EFC23
:1023300001210020FFF7D2FF20460021BDE8104018
:10234000FEF794BC9492FF1F10B5074C0121204664
:10235000FEF78CFC01210846FFF7C0FF2046002154
:10236000BDE81040FEF782BC9492FF1F10B5074CE9
:1023700001212046FEF77AFC01210220FFF7AEFF83
:1023800020460021BDE81040FEF770BC9492FF1F6C
:10239000036870B5DB68174DAB4204460E4614D196
:1023A0000020FFF79BFF2368DB68AB4214D1314666
:1023B0000120FFF793FF2368DB68AB4214D131465D
:1023C0000220BDE87040FFF789BF0A460021984708
:1023D0002368DB68AB42EAD03246012120469847A9
:1023E0002368DB68AB42EAD0324620460221BDE8D2
:1023F000704018471523000038B50C4B0C491A687B
:10240000096801321A601A688A420DD3094C227891
:1024100002F0FF0542B9012222701A680648511ADB
:10242000196003689847257038BD00BF0C97FF1FDF
:102430000097FF1FFC96FF1F1097FF1F10B5044663
:1024400001F056FD204610BD08B50A46094B68B19B
:102450001860094B09481A60002102F0A7FB02F03E
:10246000CDFC074BC0F58070186008BD01211960D4
:10247000EFE700BF0097FF1F1097FF1F0180BB47CA
:102480001497FF1F30B4064D064C07490748002338
:102490002B604BF67F32237030BC01F0DFBC00BFF5
:1024A0000C97FF1FFC96FF1FF92300000497FF1FE6
:1024B000014801F01DBD00BF0497FF1F30B4054B5C
:1024C000054A0649802400251C711D60184630BC51
:1024D00002F0BABC0497FF1F2087FF1F3D240000B5
:1024E00070B40F4E0023358803710C210122154270
:1024F0004FEA42040AD00379013903F10103A2B281
:102500000371F4D1FF23037170BC704705490B8838
:10251000154323EA020235800A8070BC704700BF71
:102520002097FF1F1C97FF1FF8B506790B2E01D9C6
:102530003046F8BD0746CEB2304601211C4615464E
:1025400000F0D6FC1C483A791C4B01889E540123AC
:1025500093400B431A4903800B681A4805EB450565
:1025600004EB4404AD00A40044F2506613F480036D
:102570003D807C8020F8126016D10A68124D134805
:10258000DFF85CE0124E134C42F480020A604FF612
:10259000FF722A601049CEF8003042F6A275202260
:1025A00033600560016022700C4B4FF480721A603A
:1025B0003E793046F8BD00BF1C97FF1F3C97FF1FB8
:1025C0003C8004402497FF1F0460034000600340E8
:1025D0000C60034048E400E0A22F010008E100E0A5
:1025E000086003404FF416634FF40872FFF79CBF76
:1025F00001EB410103888900994203DB43888B4248
:10260000A8BF0B4602790B2A9CBF024921F8123061
:10261000704700BF2497FF1F03790B2B07D8054A8B
:10262000054832F8133080FB033040087047002023
:10263000704700BF2497FF1FABAAAA2A00790B2876
:1026400006D8044B1B8843FA00F000F001007047E5
:10265000002070471C97FF1FF8B5314E314D96F999
:1026600000202B881341DC0752D42F4C94F9003002
:102670000B2B0EDC298841FA03F2D00702D52DE09E
:10268000D2072AD401335BB20C2B41FA03F2F7D103
:10269000237026480268C2F56A3101F5C071B1F5B0
:1026A000966F17DB4EF660238B42A8BF0B461A4489
:1026B0001F4902600E681F4D1F4A1C4F334442F6EB
:1026C000A3760B602E600368934202D900233B601F
:1026D0002370F8BD4FF49663E9E72370174A012190
:1026E000D05C00F0F1FB94F90030104A1449104816
:1026F00031F81350116833702944116002680D4994
:102700002A44013342F6A37502600D602370F8BDC0
:102710000A4B0021985C00F0D7FB0C233370A4E730
:102720005C87FF1F1C97FF1F1E97FF1F1897FF1F37
:102730000C600340006003407FA903003C97FF1F2B
:102740002497FF1F844641EA000313F003036DD171
:10275000403A41D351F8043B40F8043B51F8043B64
:1027600040F8043B51F8043B40F8043B51F8043B6B
:1027700040F8043B51F8043B40F8043B51F8043B5B
:1027800040F8043B51F8043B40F8043B51F8043B4B
:1027900040F8043B51F8043B40F8043B51F8043B3B
:1027A00040F8043B51F8043B40F8043B51F8043B2B
:1027B00040F8043B51F8043B40F8043B51F8043B1B
:1027C00040F8043B51F8043B40F8043B51F8043B0B
:1027D00040F8043B403ABDD2303211D351F8043BAB
:1027E00040F8043B51F8043B40F8043B51F8043BEB
:1027F00040F8043B51F8043B40F8043B103AEDD25A
:102800000C3205D351F8043B40F8043B043AF9D2AA
:10281000043208D0D2071CBF11F8013B00F8013B7D
:1028200001D30B8803806046704700BF082A13D38A
:102830008B078DD010F003038AD0C3F10403D21AA2
:10284000DB071CBF11F8013B00F8013B80D331F8D6
:10285000023B20F8023B7BE7043AD9D3013A11F856
:10286000013B00F8013BF9D20B7803704B784370C1
:102870008B78837060467047F0B51B4B1B4E5968D0
:1028800018689A68DB6885B06C460FC4337899077E
:102890001DD5174A174C1378174913F0700318BF4A
:1028A0001370164A164B8027177000263320032218
:1028B00026706D4608701A7072B6043C45F001052A
:1028C0002046A84762B6237813F0700309D10D4B58
:1028D000064901E0013B02D00A78D207FAD505B0DB
:1028E000F0BD237005B0F0BD24AA00000100024035
:1028F00000000240040002400B00024007000240BA
:102900000A000240410D0300B0F5006F0AD210B575
:10291000094B1B78DB07044606D504F1A05000786C
:10292000C0B210BD00207047FFF7A6FF04F1A05011
:102930000078C0B210BD00BF01000240B1F5006FC9
:1029400060D2F0B5374B1B78DB0785B00C465AD503
:10295000B2F5006F03D28B18B3F5006F5ED3C1F5EB
:102960000062314D2F4B14F0030118D002292DD0F5
:1029700004F1A056077831788F4200F1010008D0A9
:10298000297811F0700118BF297037701978C907BC
:10299000FCD5013A0134002AE5D105B0F0BD032A87
:1029A00014D904F1A05650F8047B31688F4208D046
:1029B000297811F0700118BF297037601978CF0796
:1029C000FCD5043A0434002ACDD1E6E7012ACFD061
:1029D00004F1A05790F801E001783E8841EA0E2109
:1029E0008E4200F1020008D02E7816F0700618BF53
:1029F0002E7039801978CE07FCD5023A0234002AAD
:102A0000B1D1CAE77047039202910190FFF734FFFA
:102A100001A807C8B2F5006F9DD3A0E7002AA0D196
:102A2000BBE700BF0100024000000240F0B44D1EB1
:102A30002E46002400E00134B0FBF2F302FB130049
:102A4000092800F130078ABF3730F8B2C0B206F863
:102A5000010F1846002BEED10A1953704CB11078B3
:102A600015F8016F28700133E01A834202F80169FA
:102A7000F5DB0846F0BC70472DE9F04F0D4685B0F8
:102A800085EAE5790146824617461C46A9EBE579B9
:102A900002F09EF9002840F02F812AF000484046BD
:102AA000C74902F095F9002847D14046C44902F0D1
:102AB00071F90646002840D10021504602F060F925
:102AC000002814BF0420032048451DDB002DC0F260
:102AD00074815046002102F053F9254648BB492134
:102AE0004E22462321706270A3700334002E00F042
:102AF0007681A019202304F8013BA042FBD10023DA
:102B0000037005B0BDE8F08F002DC0EB0906E0DAD8
:102B1000002E00F05281A519202304F8013BAC429D
:102B2000FBD15046002102F02BF9002800F0228151
:102B300000262D232B706C1CD1E702AB01AA39466D
:102B4000504602F08DF9BB468046DDF80490002F18
:102B500057D0C9F10003BB4200F39480404603F014
:102B6000AFF90646B145B8BF0136B9F1000F40F0E4
:102B700098800136DDF808E0BEF1000F53D0013631
:102B8000A81B002804EB060153DC23462D221A70F3
:102B90000133B9F1000F63D137B11A46302002F882
:102BA000020B2E20587013468B4220D25F1C98F8DF
:102BB00000201A708F4208F1010819D0019A4FF0D5
:102BC0002E0E0BE083F801E002338B4203F1010784
:102BD0000DD218F8010B18708F4209D0013A0192FA
:102BE000002AEFD03B468B4203F10107F1D319468F
:102BF000002DC0F2A980002320460B7005B0BDE86F
:102C0000F08FB9F1000FA4D190F800806D496E4AA1
:102C1000012301939946B8F1340F8CBF8846904642
:102C20004FF0FF3397E7A81B002804EB060140F3A1
:102C3000D8800144224601384FF0200C02F801CB25
:102C4000C2F1010303442344002BF7DC20EAE073C4
:102C500001332344BEF1000F98D1B9F1000F9BD08E
:102C6000A2DA002FA0D01A46302002F8020B2E273D
:102C70005F70C9EB020302F8010B9342FBD1002203
:102C8000019291E7C7F100090126B1453046B8BF6E
:102C90000136B9F1000FDFF83081CDF804903FF430
:102CA00068AFBFF667AF002F3FF464AF09EB0703CF
:102CB000984207F102067FF65DAF002F07DD504610
:102CC000424901F0BFFEBBF1010B8246F7D102ABD6
:102CD00003AA5946504602F0C3F8DDF80490039A5F
:102CE0007B1CC9EB02029A4208BF09F10109804628
:102CF00008BFCDF804903DE70021504602F040F8AF
:102D0000002814BF0420032048453BDA002DC0EB07
:102D100009063BDB4FF07E535046002163F31E0053
:102D200002F02EF82546002841D14E23412223707F
:102D3000A37062700334002E51D0A019202304F830
:102D4000013B8442FBD1DAE6A8194342002B6FEA2B
:102D500000007FF750AF0A46202502F8015BC2F160
:102D6000010303440B44002BF7DC20EAE07301333A
:102D7000194440E749214E22462329706A70AB70FE
:102D8000E81CBCE6002D16DB0026C3E79EB1A519A2
:102D9000202304F8013BAC42FBD14FF07E53504658
:102DA000002163F31E0001F0EBFF88B100262D2304
:102DB0002B706C1CB9E72546EFE72546B1E600BF4E
:102DC000FFFF7F7F38AA000034AA000000002041E6
:102DD0004E2341222B70AB706A70E81C8FE62046B0
:102DE0008DE62346D5E600BF10B40F4B53F83020D4
:102DF00092F880422CB1012369B182F8803010BC76
:102E0000704703EBC0035B681A6841B922F0020205
:102E10001A6010BC704782F8003110BC704742F055
:102E200003021A6010BC70473CAA00001C4A02EB67
:102E3000C00301295B6811D004291BD052F830006F
:102E4000002280F8802229B1022920D0032922D033
:102E50001A6070474FF480721A60704752F8300061
:102E60004FF4A27280F880121A601A6822F02002D1
:102E70001A60704752F830104FF4A272012081F8A6
:102E800080021A601A6842F020021A60704740F20D
:102E900003121A6070474FF481721A60704700BFC6
:102EA0003CAA000030B4054B054D064C0022102111
:102EB0001A602A602060196030BC704714D003404B
:102EC00004D0034000D00340212801D8FFF78CBF75
:102ED000704700BF212806D8044B53F8303093F8D0
:102EE0000002C0B270470020704700BF3CAA00003B
:102EF000212801D8FFF79ABF704700BF2DE9F8439A
:102F0000054672B6204F214B214A1B683C68126867
:102F100062B6520102D5322B88BF013495B3C3F596
:102F2000BB331C4EDFF86490DFF86480FF334FF44E
:102F30007A72A6FB031302FB04F404EB931472B63B
:102F4000D9F800103A68D8F800E062B6C1F5BB3392
:102F5000FF33A6FB03031EF0806FC4EB93134FF403
:102F60007A7002D0322988BF013200FB0233B3F5F8
:102F70007A7F04D3013D05D004F57A74DFE701F0D0
:102F800067F8DCE7BDE8F8834897FF1F18E000E02A
:102F900004ED00E0ABAAAAAAF8B52D4B2D49DFF845
:102FA000D0E0DFF8D0C02C4E2C4D2D4C2D4A2E4FAA
:102FB0004FF4000018604FF0807018604FF0007000
:102FC00018604FF0806018604FF0006018600020BB
:102FD000086028234BF6FF71CCF80010CEF80030C3
:102FE000336013602B6023603B60B36293620922FD
:102FF00045F8242CC4F8D80F05F57F65C7F8D41F11
:1030000007F5FF2707F5FA67C6F8F83F2B6006F5C6
:10301000FF26C4F8D42F05F5FD2504F5FF243860FC
:1030200006F2F4761148316005F5FF6504F5FD649C
:103030002B602360026001F059F83220FFF75EFF39
:1030400000F0FEFC4FF4AF70BDE8F840FFF756BF4C
:1030500008E100E004800340148003402480034022
:103060002C8003401C8003403480034000800B40D0
:103070000C80034008800340431E032B14D872B613
:103080000A4951F8230068B170B4094C058834F836
:103090001320466841F82360521B24F8132062B6BF
:1030A00070BC704762B6704700207047A497FF1F3E
:1030B000249AFF1F013803280BD872B6074B53F828
:1030C000203043B100205B680130002BFBD162B699
:1030D0007047002070471846F9E700BFF897FF1FB8
:1030E000F0B472B61A491B4E012311F8014B194F67
:1030F0009A00240742F0010505D556F8324064B124
:1031000056F83520BAB10133052BEED162B6124B19
:1031100000221A70F0BC00F00FBD0F4C0F4D21784B
:1031200047F8325007EB431308304A1E58602270AC
:1031300062B6F0BC70470849094B0A7847F8353049
:1031400007EBC5030830013A58600A7062B6F0E731
:1031500074AB00000080FF1F2198FF1F8800400013
:10316000C8004000431E032B1DD81B4A400140F0FD
:10317000100030B4104472B6184CE25C032A1BD81D
:10318000DFE802F00212151703220D88E25410F056
:10319000080F14BFC823882343EA0543083103609E
:1031A000416062B630BC704708300222EDE705226C
:1031B000EBE708300422E8E7094A52F8230038B167
:1031C000084A52F82300416042F8231062B6E9E74A
:1031D00042F82310034AF7E70080FF1F3098FF1FD3
:1031E000F897FF1F0898FF1F2DE9F04FDFF804A3A1
:1031F000DFF804B387B044E0A94F4FEA930807EB28
:10320000C809013ED9F8042003F00803F6B2A2F180
:10321000080003F0FF04002B40F0FE8057F8383020
:103220001B0C99B222F8081C002B00F0EC809D4B7F
:1032300022F8064C42F8044C53F82620002A00F0ED
:103240002B82994D55F826305860984C45F8260049
:1032500034F81630194424F8161000F04DFC0028FC
:1032600000F01382924A934B19F0080F00F1080006
:1032700018BF1346C9F8040047F8383008238AF805
:1032800000309AF80040E4B260071AD58A4B1B78E8
:10329000A3B18A490A7802F0FF0322B1013BDBB2F5
:1032A0000B7003B900BE86490A7802F0FF032AB109
:1032B000013BDBB20B70002B00F0BD8104238AF8C8
:1032C000003004F0080303F0FF02002B00F0C88078
:1032D0009BF80030DBB21E098ED19C08704F57F866
:1032E000342007EBC401C2F38302013A49680C2A77
:1032F00000F28580DFE802F079798383838383831A
:1033000042838383070008686E4B6F4D0193684BBF
:103310004A686E4E47F8343081B240F28164694B9E
:103320006A60286000220120A1421A603A61BA61F5
:10333000307000F2E380B1F5D06F80F02782B1F5F4
:10334000817F00F0E08100F2C381802900F03682A5
:10335000822940F0DE81A9885D4B01F07F010429BC
:1033600000F2D8815B4C89000B44227062701A789D
:10337000930740F122832070022023E2514B0193F6
:103380001A683AB3544B514E5449188834780D7822
:103390004028864645F0020828BF4FF0400E002C1A
:1033A00084F001043470CEEB00000CBF8824C824E4
:1033B00007EBC80680B285F0010544EA0E4472604E
:1033C000188047F8384072440D70002800F0B7802C
:1033D000019B1A603C4B1A88B2F5A06F0FD10021F7
:1033E0009A7859703E4B1A7009E0374A108842F2B9
:1033F0002102904200F0A8802D4A47F83420394A33
:10340000012313703AE72A4A2A4B19F0080F18BF14
:10341000134647F8383031E700F08EFB324A334923
:1034200052F82630002B00F03B8158688C5D42F842
:10343000260003F10802C9F80420032C05D8DFE8B0
:1034400004F02C02292602228A551A8819F0080F46
:103450000CBF8823C82343EA024347F838300DE7FE
:10346000E00700F1EB80210600F12881A20706D5D4
:103470001F4A204913780220DBB213700870E3065C
:1034800002D51C4B10221A7007B0BDE8F08F042241
:103490008A55DAE705228A55D7E703228A55D4E709
:1034A0000080FF1FA497FF1F5097FF1F249AFF1F44
:1034B000C8004000880040002C98FF1FB597FF1FF0
:1034C0003498FF1F4C97FF1F1898FF1FB497FF1FDA
:1034D000C02007402498FF1F6097FF1F2098FF1F00
:1034E0009820074094200740F897FF1F3098FF1F4F
:1034F00088200740802007409020074042F22104A6
:10350000A14200F0948043D8B1F5086F00F0A88183
:10351000B1F5106F40F0FD80B84AB94CA978117030
:1035200004F1800503E00834AC4200F09E81236A78
:103530001906F8D5606A083800F0FEFAF3E7BEF124
:10354000400F18BF002243E7AE4ACD1D11F8013BE2
:1035500002F8013FA942F9D1AB4A1268862A00F06D
:103560001181AA49AA4E0A78307882F00105002814
:1035700042F002020D700CBF8821C82147F83210BA
:1035800007EBC20280F0010000213070516033E788
:1035900042F22124A14240F0FE81DFF8BCC29D4BE3
:1035A0009D49AC78DCF800501D6081460C7000200D
:1035B000029080468446044694490D7845F0020EF8
:1035C00007EBCE03B9F1000F5C600CBF8824C82460
:1035D00044EA080385F0010447F83E3032700C706D
:1035E000DFF81CE28A4BDFF82482002840F0988044
:1035F000BCF1400F1BD144F0020407EBC403029F4F
:10360000DFF8FCE15F60002A40F09F80020442F096
:10361000880207444EF8342086F800900D703B462F
:10362000402804D100207D4A019910800B607C4A1B
:1036300001231370E3E600F0EBFB3FE6704B7848A4
:1036400072491A614FF0020E80F800E0754F0A705F
:10365000754919609960754E754D764C9A610D21CA
:103660003970FF213170DFF8F4E129702270724D5A
:10367000724A8EF800109F27012406F8047C5D60D2
:103680000470DA6007B0BDE8F08F6D4A47F8380083
:10369000137801331370F1E543F82600694DD4E542
:1036A0008B5D032B67D801A252F823F07D32000016
:1036B0007D32000001370000FB36000059495C4BA9
:1036C00080220D2008701A70A2077FF5D8AECFE6D1
:1036D00040F20232914240F05681A98801F07F0108
:1036E000042916D86A88A2B94E4C89000C44814638
:1036F000217841F00201217059E701238B55BDE586
:1037000000238B55BAE5A98801F07F01042940F216
:103710004781444B0F221A70414A012313706EE611
:1037200040287FF668AF44F002040EEBC401029E0D
:103730004E60AAB1444A83F800903346403888F876
:10374000005040334EF834206DE70204029B86F8A7
:10375000009042F0C8020D7003444EF834205FE739
:1037600083F80090029B304A88F80050403840337C
:103770004EF8342057E719F0080F0CBF022303233B
:103780008B557BE5314A0F211170EAE6304A5468C7
:10379000002CBED06888B5F804E003E00C32546811
:1037A000002CB6D013888342F8D153887345F5D1E5
:1037B000000A03280CBF2078108903E0254C022062
:1037C00022706270EA88824280F00C810F490D7885
:1037D000402A45F0020E944607EBCE0028BF4FF07A
:1037E000400C04EB0C0344600293CCEB02004FEA64
:1037F0000C484FF001090022C824E9E62C98FF1F6D
:103800000080FF1F2B9AFF1F2C9AFF1F2098FF1F7D
:10381000B497FF1F349AFF1F4498FF1F6097FF1F44
:1038200094200740C02007408800400088200740BF
:1038300080200740982007406497FF1FB897FF1F1C
:103840002198FF1F5097FF1FC8004000B597FF1F2A
:1038500078AB00002498FF1F4897FF1F8C2007407B
:10386000684A694C12782270ACE76849684B694A2B
:1038700002916949694C6A4D039405964FF000091D
:1038800088461C4616460495206828B1456800F015
:1038900053F92846002DF9D100232360049B30689A
:1038A0001A46002342F8293028B1456800F044F94F
:1038B0002846002DF9D100223260029A98F8003093
:1038C0001146002241F8042B039A0291023B4FF06B
:1038D000000122F81910032B07D8DFE803F03402A7
:1038E00034024FF0010388F8003009F10109B9F101
:1038F000040F04F1040406F1040608F10108C3D121
:10390000484B059EDFF83091DFF8308100211970B7
:10391000012518F8013B09F8043B1A0718D4AC003C
:1039200044F0020244F00304002347F8323047F821
:1039300034303D4B994505F10105EAD196F80090E8
:1039400089F0010233E64FF0000388F80030CCE73D
:1039500000F0D2F8AC0007EB451300F10802002894
:1039600037D05A60314B47F8343000F0C5F844F096
:10397000010307EBC30200F1080100B351602C4AB8
:1039800047F83320CCE7B1F5A06F7FF4C2AE002238
:103990004FF001090BE642F221329142F7D0B8E62E
:1039A0006A88002A7FF4B5AE224C89000C44814617
:1039B000217821F002012170F9E5022002E7194B7C
:1039C00044F001021B7847F83200164A01331370A5
:1039D000A6E7144B134A1B78AC00013347F83400B8
:1039E0001370C2E74028844628BF4FF0400C04EB18
:1039F0000C03CCEB00004FEA0C48029300224FF07E
:103A00000109D9E52C98FF1F2498FF1F0898FF1F74
:103A1000A497FF1FF897FF1F3098FF1F249AFF1FDE
:103A20005097FF1F2198FF1FD420074088004000B7
:103A3000C8004000C0200740C420074074AB00000D
:103A40002DE9F843204C00F0AFFD002204F188007E
:103A500023461A605A60083383424FF00001F8D1C0
:103A60001A4A1B4F13681B4D1B481C4EDFF8788009
:103A7000DFF878C0DFF87890DFF878E043F480234F
:103A80001360C4F307233B70C4F307432B70240E69
:103A9000FF2302F528320470114D88F800301148D8
:103AA0008CF80030D4323370012389F8003070264E
:103AB0008EF800104FF40074102107F8183C2E7097
:103AC00004601170BDE8F8830080FF1F348004405B
:103AD0009C200740B0200740B4200740102007403A
:103AE00049E400E008E100E080200740882007402A
:103AF000942007400021074072B60D480268B2FAD0
:103B000082F30B2B10DC4FF00041D94022EA010276
:103B1000026062B6074803EBC303DB00C218002152
:103B2000C15010465160704762B60020704700BF18
:103B30006087FF1FBC83FF1F0D4B0E4AC31AA2FBF9
:103B400003231B090B2B0CD80B4A127852B972B6FF
:103B50000A484FF00041026821FA03F31A43026059
:103B600062B67047064A1278002AF0D0FFF7B8BA5A
:103B7000BC83FF1F398EE3382198FF1F6087FF1F2A
:103B80002C98FF1F38B50F4D286878B143880288FC
:103B9000C118013393420C7A02D24380204638BDCB
:103BA000FFF7CAFF002320462B6038BD064B1B7869
:103BB0002BB10320FFF760FA28600028E6D14FF010
:103BC000FF3038BD4098FF1F2C98FF1F10B5094CDF
:103BD000206818B143881844007A10BD064B1B7842
:103BE0002BB10320FFF748FA20600028F2D14FF0F4
:103BF000FF3010BD4098FF1F2C98FF1F044B054A53
:103C00001B6890881BB11A885B88D31A18447047C8
:103C10004098FF1F249AFF1F0B4B1B789BB110B5D8
:103C20000A4C206848B1FFF787FF00230320236078
:103C3000FFF722FA30B1FFF77FFF0320FFF71CFAEE
:103C40000028F8D110BD70472C98FF1F4098FF1F27
:103C50002DE9F04FDFF8F89083B0012289F80020B9
:103C6000019169B3DFF8EC80364F019E8346D8F8A6
:103C70000000B0B3344D4488C4F14001B14228BFC4
:103C8000314604EB010E00221FFA8EFE2A70761ACE
:103C9000A0F802E000F1080251B1013C224459446D
:103CA0001BF8014B02F8014F8B45F9D1B0F802E047
:103CB000BEF13F0F0BD8254A05211170002ED6D139
:103CC0000198002389F8003003B0BDE8F08F40224E
:103CD000028001460420FFF745FA0022C8F80020C0
:103CE000E9E73A782AB3184D4AF2F9244FF0010A6D
:103CF00007E0013C16D02A78A2B900F0A9F93A7879
:103D0000BAB10420FFF7D6F90728F2D889F800A045
:103D1000FFF7F2FEC8F800000028ACD10C4B013CC4
:103D20001870E8D101234FF0FF302B7003B0BDE8CD
:103D3000F08F00234FF0FF3089F8003003B0BDE86A
:103D4000F08F00BF2C98FF1F3C98FF1F3498FF1F77
:103D50003598FF1F3898FF1F00B583B002AB0121D3
:103D600003F8010D1846FFF773FF03B05DF804FB7D
:103D700038B50E4D0E4C28680123237028B14088B9
:103D800000232370C0F1400038BD0A4B1B7813B9E3
:103D90000020207038BD0420FFF78CF90728F7D8E1
:103DA000FFF7AAFE28600028E9D1F1E73898FF1F45
:103DB0003598FF1F2C98FF1FF8B5114B1B788BB15E
:103DC000104E114D346801272F7064B10F4A63887B
:103DD00000271770214623800420FFF7C3F93760BE
:103DE00000232B70F8BDFFF787FE084B28B1014672
:103DF00004201C70FFF7B6F9F2E71F70F0E700BF70
:103E00002C98FF1F3898FF1F3598FF1F3498FF1F0D
:103E100038B50E4B1B7873B90D4C216861B103F0B6
:103E2000FF054B880B800420FFF79CF9256038BD07
:103E3000084B01221A7038BDFFF75EFE0028F7D04C
:103E40000146BDE838400420FFF78CB93598FF1FC4
:103E50003898FF1F3498FF1F704700BF0368F0B405
:103E6000FBB1002501249D60DC601B4C1A601C44E2
:103E7000241104F144056A11032692009E60174F35
:103E80000679174B47F8241002F1604202F56142AF
:103E900005F01F05012000FA05F5E6541560F0BC99
:103EA0007047104C236843F40003236000BF0E4B9F
:103EB0000E4DA4F58734A4F59E7401261E6023469A
:103EC00004609C68002CD0D01033AB420360F8D162
:103ED000002303601846E2E7008FFCBF6487FF1FE2
:103EE00044E400E03C800440007003404071034023
:103EF0000168A9B10B4BF0B40B441B110A4E0B4FD8
:103F00000B4D46F8237003F1440202F01F04012315
:103F10005211A340002445F822308C600460F0BCAC
:103F2000704700BF008FFCBF6487FF1F593E000031
:103F300080E100E0024A034B012111601B68184731
:103F40000C7103406487FF1F024A034B012111607B
:103F50005B6818471C7103406487FF1F024A034BCC
:103F6000012111609B6818472C7103406487FF1F73
:103F7000024A034B01211160DB6818473C71034082
:103F80006487FF1F08B5FCF771FAFCF7ADFA00F083
:103F90005FF8FAE770B50E4D82B02B680093009E73
:103FA000044608E000F054F82B680193019BA268D6
:103FB0009B1B934207D2236820465B6998470028E1
:103FC000F0DB02B070BD4FF0FF3002B070BD00BF3B
:103FD0004897FF1FD3B12DE9F041B3F10108154611
:103FE0001DD006460F46002406E0002810DB0134F1
:103FF000A04505F8010B04D03046FFF7CBFF874200
:10400000F3D100232B702046BDE8F081184670479D
:104010000123337300232B702046BDE8F081444612
:10402000EFE700BFFFF7F8BDFFF7D0BDFFF7AABD70
:10403000FFF7E4BDFFF7C0BEFFF79ABE0846114682
:10404000FFF706BE0846FFF787BE00BF704700BFF8
:1040500038B5224C237803B138BD01232370FFF714
:10406000CDFD70BB00F0F8F840BB00F08BF910BB41
:1040700000F01EFAE0B900232370EFF30583002B54
:10408000EAD1EFF3108172B6154B1868E0B1154C08
:104090002278CAB945691D6001232370C5B1AA61A0
:1040A00001B962B600254577836898472570D3E744
:1040B00000F0B8FBDFE700F0B3FBD9E700F0AEFBA0
:1040C000D3E7FFF7C3FFCDE70029C5D162B638BDFE
:1040D000054B1D600029E5D1E3E700BF4598FF1FB0
:1040E000E499FF1FE899FF1FE099FF1F30B42948AA
:1040F000294A2A4B2A4D6024E121047011701B7853
:10410000284C082B30D00A2B2748284937D00C2BB5
:104110000CBF35223D2212232A60236002600B600F
:10412000234B24491B78244ABBB101230B60136045
:10413000224B23491B78234A012B26D9042B0FD964
:10414000082B1ED9102B94BF862387230B60136086
:104150001D4B01221A7030BC70470B601360E7E7FB
:1041600084230B601360F3E700F58E200F490830BD
:10417000012213232A60236002600B60D0E73922FA
:10418000F7E785230B601360E2E780230B60136081
:10419000DEE700BF00400740014007408487FF1F63
:1041A00008B003400CB0034008B00B400CB00B400B
:1041B0004798FF1F20B0034020B00B408587FF1FAA
:1041C00024B0034024B00B404698FF1F08B5104CA4
:1041D00008E0236859050DD423681A050FD4236815
:1041E000DB0411D423685803F3D5FEF7FDFF2368E1
:1041F0005905F1D500F040F823681A05EFD500F015
:10420000D1F82368DB04EDD500F062F9EAE700BFDE
:104210003480044008B5FFF7D9FF00BF014B1022DE
:104220001A80704700200540704700BF094908B553
:104230000B6830B16A461844A2F58052904202D20F
:104240000860184608BD00F01BFE0C2303604FF009
:10425000FF3008BD8887FF1F054A064B10781B7882
:10426000C0B2DBB2984238BF4030C01A704700BFBE
:104270004C98FF1F4D98FF1FF0B4384B1A7912F07D
:10428000300F2CD072B6997D01F0FF0200293DD08D
:1042900062B6334F334938780D78334E1C46C0B27E
:1042A000EDB2431C402BE17928BF0023AB4202F161
:1042B000FF32C9B21CBFF154184612F0FF02F0D110
:1042C0002A4B1B68C2B23A704BB1A84236BFC5F147
:1042D0004005401B40192728C4BF01221A701F49FE
:1042E000CA78D2B2150616D452060DD51B4B1B79CF
:1042F0005B0609D51E4B1F491B6800220A7003B1DB
:104300001A70164B3C22DA70F0BC70474022D97903
:104310005A7462B6E3E70B791C06E5D5164B174EC7
:104320001C783378E4B2DBB29C420ED0144D01E02D
:10433000A3420AD00133402B28BF00230879E85C50
:10434000C0B2C871087D0728F2D9DBB203493370C7
:104350000B79180644BF7C23CB70C5E700A006404C
:104360004C98FF1F4D98FF1F9098FF1F4898FF1F04
:10437000D498FF1FD098FF1FD898FF1FD198FF1F18
:104380005098FF1F054A064B10781B78C0B2DBB26D
:10439000984238BF4030C01A704700BF4C99FF1F89
:1043A000E198FF1FF0B4384B1A7912F0300F2CD07F
:1043B00072B6997D01F0FF0200293DD062B6334FFD
:1043C000334938780D78334E1C46C0B2EDB2431CE9
:1043D000402BE17928BF0023AB4202F1FF32C9B282
:1043E0001CBFF154184612F0FF02F0D12A4B1B6893
:1043F000C2B23A704BB1A84236BFC5F14005401B6E
:1044000040192728C4BF01221A701F49CA78D2B2A6
:10441000150616D452060DD51B4B1B795B0609D524
:104420001E4B1F491B6800220A7003B11A70164BFD
:104430003C22DA70F0BC70474022D9795A7462B6D7
:10444000E3E70B791C06E5D5164B174E1C7833783D
:10445000E4B2DBB29C420ED0144D01E0A3420AD07C
:104460000133282B28BF00230879E85CC0B2C8714B
:10447000087D0728F2D9DBB2034933700B7918069F
:1044800044BF7C23CB70C5E700B006404C99FF1FAA
:10449000E198FF1F0C99FF1FDC98FF1F5099FF1F29
:1044A000E098FF1F5499FF1F4D99FF1FE498FF1FCD
:1044B000054A064B10781B78C0B2DBB2984238BF71
:1044C0004030C01A704700BF5C99FF1F5D99FF1F05
:1044D00030B42B4B1A7994061FD52A48DA79037821
:1044E000294901333F2B0978C8BF00238B42D2B240
:1044F00003D0264CD9B2E2540170254A116861B14B
:10450000244A1278D2B2934236BFC2F140029B1ABB
:104510009B18272BC4BF01230B70194AD378DBB239
:10452000180611D45A060DD5154B1B795B0609D513
:10453000194B1A491B6800220A7003B11A70104BFC
:104540002C22DA7030BC704711790906EAD514497B
:1045500010480C780178C9B28C420DD04A1C272A29
:1045600084BF00210A460F4D054C98BFD1B2AA5C0A
:10457000D2B2E2710170D5E76C21D170D2E700BFF1
:1045800000C006405C99FF1F5D99FF1F8899FF1FBF
:104590005899FF1FC999FF1FCC99FF1FC899FF1F8A
:1045A000D099FF1F6099FF1F70B584B072B6194B88
:1045B000194D1A48702241260F2480211A702E703E
:1045C0001A460470197013781B06FCD5144B186832
:1045D00062B6144B144C984298BF00EB800001A9BE
:1045E00098BF40000A22FEF721FA01A920460023C5
:1045F00011F8012B01333AB10A2B20F8022FF7D121
:104600001623237004B070BD5B00DBB2237004B0CE
:1046100070BD00BF000002400700024006000240DB
:10462000080002407F9698001888FF1F10B4EFF32F
:10463000108272B6437F33B9017F012907D0032965
:104640000FD00123437702B962B610BC7047124CF9
:104650002168A1B1114943610B6883610860586109
:10466000EFE70F4C216881B10E4943610B6883610C
:10467000086058610C4B4FF080511960E1E7074B1F
:104680004161816120601860DBE7064B4161816117
:1046900020601860EEE700BFE499FF1FE099FF1F5C
:1046A000D499FF1FD899FF1F04ED00E010B4047FD8
:1046B0004160022CC26002D010BCFFF7B7BF836814
:1046C00010BC184770B5EFF3108272B60C4C20681E
:1046D00080B10C4E00254369236073B19D6102B91E
:1046E00062B6457783689847EFF3108272B6206808
:1046F0000028F0D102B962B670BD3360EFE700BFA9
:10470000D499FF1FD899FF1FFFF7DCBF184A30B4B8
:104710001468002C27D0036821688B420ED2CB1A74
:1047200000218460C1602360E06010600223037593
:1047300030BC704711688B42144608D3A2685B1ADC
:104740000360002AF6D18260C460A060EEE7D26800
:10475000C2608460E060C568CB1A0222A860236052
:10476000027530BC70478460C4601060DEE700BF33
:10477000DC99FF1FF8B5224E34682CB32368002B58
:104780003AD1204F1D4604E03468ECB12368002B79
:1047900032D1A36803B1DD602069336003682575F9
:1047A0001B68BB4221D1037F4560022BC46020D02F
:1047B000FFF73CFF6368002BE6D023602046FFF73D
:1047C000A5FF3468002CE1D1EFF3108372B60E4AD6
:1047D00000211068116003B962B628B18468FFF740
:1047E00095FF20460028F9D1F8BD224600219847C0
:1047F000E0E783689847DDE7013B2360E4E700BF1B
:10480000DC99FF1FAD460000EC99FF1F024A1368B8
:1048100001331360FFF7AEBF4897FF1F704700BF1B
:10482000704700BF704700BF80F0004002E000BF4B
:1048300081F0004142001FBF5FEA410392EA030F8B
:104840007FEA226C7FEA236C6AD04FEA1262D2EBD5
:104850001363C1BFD218414048404140B8BF5B42DA
:10486000192B88BF704710F0004F40F4000020F073
:104870007F4018BF404211F0004F41F4000121F089
:104880007F4118BF494292EA030F3FD0A2F10102D3
:1048900041FA03FC10EB0C00C3F1200301FA03F111
:1048A00000F0004302D5494260EB4000B0F5000F34
:1048B00013D3B0F1807F06D340084FEA310102F1F3
:1048C0000102FE2A51D2B1F1004F40EBC25008BFA5
:1048D00020F0010040EA03007047490040EB00006F
:1048E00010F4000FA2F10102EDD1B0FA80FCACF19E
:1048F000080CB2EB0C0200FA0CF0AABF00EBC2509D
:1049000052421843BCBFD0401843704792F0000F8A
:1049100081F4000106BF80F400000132013BB5E7DD
:104920004FEA41037FEA226C18BF7FEA236C21D053
:1049300092EA030F04D092F0000F08BF08467047B8
:1049400090EA010F1CBF0020704712F07F4F04D186
:10495000400028BF40F00040704712F100723CBF99
:1049600000F50000704700F0004343F0FE4040F4C3
:10497000000070477FEA226216BF08467FEA236381
:104980000146420206BF5FEA412390EA010F40F46C
:10499000800070474FF0000304E000BF10F00043B8
:1049A00048BF40425FEA000C08BF704743F096439F
:1049B00001464FF000001CE050EA010208BF7047BA
:1049C0004FF000030AE000BF50EA010208BF704741
:1049D00011F0004302D5404261EB41015FEA010C56
:1049E00002BF84460146002043F0B64308BFA3F14E
:1049F0008053A3F50003BCFA8CF2083AA3EBC25330
:104A000010DB01FA02FC634400FA02FCC2F120024E
:104A1000BCF1004F20FA02F243EB020008BF20F085
:104A20000100704702F1200201FA02FCC2F12002EB
:104A300050EA4C0021FA02F243EB020008BF20EAE0
:104A4000DC7070474FF0FF0C1CEAD0521EBF1CEA0E
:104A5000D15392EA0C0F93EA0C0F6FD01A4480EAFC
:104A6000010C400218BF5FEA41211ED04FF00063E5
:104A700043EA501043EA5111A0FB01310CF0004011
:104A8000B1F5000F3EBF490041EAD3715B0040EA37
:104A9000010062F17F02FD2A1DD8B3F1004F40EB07
:104AA000C25008BF20F00100704790F0000F0CF0DA
:104AB000004C08BF49024CEA502040EA51207F3A9E
:104AC000C2BFD2F1FF0340EAC250704740F4000079
:104AD0004FF00003013A5DDC12F1190FDCBF00F06A
:104AE00000407047C2F10002410021FA02F1C2F118
:104AF000200200FA02FC5FEA310040F1000053EAB4
:104B00004C0308BF20EADC70704792F0000F00F001
:104B1000004C02BF400010F4000F013AF9D040EA07
:104B20000C0093F0000F01F0004C02BF490011F49B
:104B3000000F013BF9D041EA0C018FE70CEAD15399
:104B400092EA0C0F18BF93EA0C0F0AD030F0004C19
:104B500018BF31F0004CD8D180EA010000F00040CD
:104B6000704790F0000F17BF90F0004F084691F08B
:104B7000000F91F0004F14D092EA0C0F01D14202C5
:104B80000FD193EA0C0F03D14B0218BF084608D18E
:104B900080EA010000F0004040F0FE4040F40000D8
:104BA000704740F0FE4040F4400070474FF0FF0C6B
:104BB0001CEAD0521EBF1CEAD15392EA0C0F93EAB2
:104BC0000C0F69D0A2EB030280EA010C49024FEA04
:104BD000402037D04FF0805343EA111143EA1013BD
:104BE0000CF000408B4238BF5B0042F17D024FF475
:104BF000000C8B4224BF5B1A40EA0C00B3EB510F50
:104C000024BFA3EB510340EA5C00B3EB910F24BF38
:104C1000A3EB910340EA9C00B3EBD10F24BFA3EBBD
:104C2000D10340EADC001B0118BF5FEA1C1CE0D185
:104C3000FD2A3FF650AF8B4240EBC25008BF20F038
:104C4000010070470CF0004C4CEA50207F32C2BF8C
:104C5000D2F1FF0340EAC250704740F400004FF029
:104C60000003013A37E792F0000F00F0004C02BF5A
:104C7000400010F4000F013AF9D040EA0C0093F024
:104C8000000F01F0004C02BF490011F4000F013B7E
:104C9000F9D041EA0C0195E70CEAD15392EA0C0FE6
:104CA00008D142027FF47DAF93EA0C0F7FF470AF1E
:104CB000084676E793EA0C0F04D14B023FF44CAF61
:104CC00008466EE730F0004C18BF31F0004CCAD1F6
:104CD00030F000427FF45CAF31F000437FF43CAF32
:104CE0005FE700BF4FF0FF3C06E000BF4FF0010C54
:104CF00002E000BF4FF0010C4DF804CD4FEA400236
:104D00004FEA41037FEA226C18BF7FEA236C11D07F
:104D100001B052EA530C18BF90EA010F58BFB2EB32
:104D2000030088BFC81738BF6FEAE17018BF40F0B2
:104D3000010070477FEA226C02D15FEA402C05D166
:104D40007FEA236CE4D15FEA412CE1D05DF8040BEB
:104D5000704700BF844608466146FFE70FB5FFF77E
:104D6000C9FF002848BF10F1000F0FBD4DF808ED36
:104D7000FFF7F4FF0CBF012000205DF808FB00BF27
:104D80004DF808EDFFF7EAFF34BF012000205DF881
:104D900008FB00BF4DF808EDFFF7E0FF94BF0120CE
:104DA00000205DF808FB00BF4DF808EDFFF7D2FFCB
:104DB00094BF012000205DF808FB00BF4DF808ED0E
:104DC000FFF7C8FF34BF012000205DF808FB00BFDB
:104DD0004FEA40024FEA41037FEA226C02D15FEAC8
:104DE000402C08D17FEA236C02D15FEA412C02D12A
:104DF0004FF0000070474FF0010070474FEA40024B
:104E0000B2F1FE4F0FD34FF09E03B3EB12620DD9F8
:104E10004FEA002343F0004310F0004F23FA02F062
:104E200018BF404270474FF00000704712F1610F09
:104E300001D1420205D110F0004008BF6FF00040E0
:104E400070474FF0000070470B460146184600F0CF
:104E500001B800BF13460A460146022002F01ABEFE
:104E6000F0B583B016461F460D46002404F07AFDC7
:104E7000009733462A46019403F02EFE03B0F0BD9E
:104E8000014B1868704700BF588CFF1F70B50F4E5C
:104E90000F4D761BB61018BF002405D0013455F80D
:104EA000043B9847A642F9D10A4E0B4D761B05F0FC
:104EB000CFFFB61018BF002406D0013455F8043BCC
:104EC0009847A642F9D170BD70BD00BF5CAE00002E
:104ED0005CAE00008CAE00005CAE0000034A044BE8
:104EE0001268506B002808BF18467047588CFF1F87
:104EF0005C8CFF1FD0F8EC00704700BF08B5034B77
:104F00001868FFF7EBFFD0F8EC0008BD588CFF1FC6
:104F1000024B0146186800F003B800BF588CFF1F11
:104F20002DE9F04F01F10B05162D83B0064640F236
:104F30009F8035F0070500F1BF80A94200F2BC80D8
:104F400000F06EFBB5F5FC7FC0F09C826B0A00F0B0
:104F5000BA80042B00F28381A80900F1390E4FEAD0
:104F60004E033830C44F07EB8303A3F108015C689C
:104F7000A14207D1ACE0002A80F2AC80E468A142F3
:104F800000F0A680636823F003035A1B0F2AF2DDAA
:104F9000B9493C6901F1080E744500F0B3816368BA
:104FA00023F003035A1B0F2A00F39981002AC1F84A
:104FB00014E0C1F810E080F29E80B3F5007F80F02D
:104FC0006781DB0803F1010C01229B1002FA03F355
:104FD0004A6851F83C80C4F8088001EBCC091A43B8
:104FE000A9F10803E3604A6041F83C40C8F80C406E
:104FF000831001249C40944200F28A80144206D11E
:1050000020F003006400144200F10400FAD007EB22
:10501000C009CC468046DCF80C108C4507D173E102
:10502000002A80F28181C9688C4500F06D814B684F
:1050300023F003035A1B0F2AF2DD0C46D1F80CC0F3
:1050400054F8088F4B1945F001054D6042F00101FD
:10505000C8F80CC03046CCF808807B613B61C3F8CF
:105060000CE0C3F808E059609A5000F0DBFA1FE04A
:10507000102921D800F0D4FA1025062302207E4FF3
:1050800007EB8303A3F108025C68944200F04581BA
:105090006368E168A56823F00303234430465A6837
:1050A000E96042F001028D605A6000F0BBFA0834FA
:1050B000204603B0BDE8F08F00240C232046336067
:1050C00003B0BDE8F08F80234FF0400E3F2049E74A
:1050D00070465DE72344E1685A68A56842F0010222
:1050E000E96030468D605A6000F09CFA0834204632
:1050F00003B0BDE8F08F234430465A6842F0010205
:105100005A6000F08FFA0834204603B0BDE8F08FF3
:10511000BC68636823F00308A84504D3C5EB080303
:105120000F2B00F38C80554BDFF860911A68D9F88B
:10513000003001332A4404EB080A00F0608102F5D4
:1051400080520F3222F47F6222F00F021146304665
:10515000019200F059FCB0F1FF3F8346019A00F044
:105160005881824500F2FC80454B1968DA451144AC
:10517000196000F05381D9F80000DFF810E1013028
:105180001BBFCAEB0B0A5144CEF800B019601BF0EC
:10519000070100F01781C1F10800C1F58051834477
:1051A00008315A44C2F30B02C2EB010949463046AA
:1051B000019300F029FC431C019B00F03F81CBEBE5
:1051C00000024A4442F001021968C7F808B0494495
:1051D000BC42CBF804201960DFF8A49016D0B8F1D7
:1051E0000F0F40F2FD806268A8F10C0323F0070363
:1051F000E01802F001024FF0050E1A430F2B626017
:10520000C0F804E0C0F808E000F21C811D4BBC6847
:105210001A68914288BF19601B4B1A6891426268F4
:1052200088BF196022F003029542A2EB050301D862
:105230000F2B04DC304600F0F5F9002438E7621942
:1052400043F0010345F0010565603046BA605360E4
:1052500000F0E8F90834204603B0BDE8F08F142BC5
:1052600071D9542B00F2A480280B00F16F0E4FEA85
:105270004E036E3076E600BFC88DFF1FF899FF1F02
:10528000FC99FF1FF499FF1FF099FF1FD491FF1F96
:105290005A0A042A5ED9142A00F2B38002F15C0192
:1052A00049005B3207EB810C57F82110DFF8DC81F5
:1052B000ACF1080C8C4500F088804A6822F00302AB
:1052C000934202D289688C45F7D1D1F80CC07A6834
:1052D000C4F80CC0A160CCF80840CC6088E6631923
:1052E00042F0010745F00105656030464B610B61F6
:1052F000C3F80CE0C3F808E05F609A50083400F08F
:1053000091F9D5E64A6873E608F1010818F0030F31
:105310000CF1080C7FF47FAE30E0DC68A34208BFDC
:1053200002303FF435AEB3E60B440C465A68C96808
:1053300054F8085F42F001025A603046E9608D601F
:1053400000F070F9B4E603F15C0E03F15B004FEA84
:105350004E0307E69A0902F1390149003832A1E704
:10536000BC424A4B3FF400AF9C68626822F00302E3
:105370005AE759F80839994540F0828010F0030F38
:1053800000F1FF30F5D17B6823EA04037B60640001
:105390009C423FF6BDAE002C3FF4BAAE1C424046E4
:1053A0007FF435AE64001C4200F10400FAD02EE612
:1053B000B3F5AA7F18D8E80B00F1780E4FEA4E0338
:1053C0007730CFE54FF48051EBE60121D8F8043077
:1053D000921001FA02F21A43C8F80420614677E7F6
:1053E0000123CBF8043025E740F25452934220D8F1
:1053F000A80C00F17D0E4FEA4E037C30B2E510326E
:10540000A4E6542A26D81A0B02F16F0149006E3225
:1054100048E7BC68626822F0030205E7CAF30B00A4
:1054200000287FF4A8AE4244BB6842F001025A60F3
:10543000ECE6FE234FF07F0E7E2093E501224FF035
:105440000009C1E604F10801304603F01DFCD9F85B
:105450000010DBE6B2F5AA7F05D8DA0B02F178017D
:10546000490077321EE740F254518A4205D89A0C1F
:1054700002F17D0149007C3214E7FE217E2211E712
:105480007B6884E7E808431C5B00F8E5C88DFF1FD4
:1054900082B049B15AB16BB113780B601278101C0D
:1054A00018BF012002B0704701A9002AF3D11046AD
:1054B00002B070476FF00100F4E700BF8842F0B51A
:1054C0000DD98B1898420AD28118002A51D09A1A05
:1054D00013F8014D01F8014D9342F9D1F0BD0F2AA7
:1054E00048D941EA00039B0746D100F1100401F1BD
:1054F0001003154653F8106C44F8106C53F80C6CFC
:1055000044F80C6C53F8086C44F8086C103D53F8E0
:10551000046C44F8046C0F2D03F1100304F1100423
:10552000E8D8A2F1100323F00F0302F00F0E10339E
:10553000BEF1030F1944034421D91E1F0D467446C2
:10554000043C55F8047B46F8047F032CF8D8AEF1F0
:10555000040424F0030404342344214402F003022D
:1055600062B1013B0A4411F8014B03F8014F8A4232
:10557000F9D1F0BD0346F3E70346F2E7F0BD72460A
:10558000EEE700BF70B4840746D0541E002A41D015
:10559000CDB2034602E0621EE4B3144603F8015B99
:1055A0009A07F8D1032C2ED9CDB245EA05250F2C48
:1055B00045EA054519D903F110022646103E0F2E83
:1055C00042F8105C42F80C5C42F8085C42F8045C5B
:1055D00002F11002F2D8A4F1100222F00F0204F03E
:1055E0000F041032032C13440DD91E462246043AF0
:1055F000032A46F8045BFAD8221F22F00302043281
:10560000134404F003042CB1C9B21C4403F8011B79
:10561000A342FBD170BC704714460346C2E700BFEB
:10562000704700BF704700BF2DE9F04F174683B0A9
:10563000002900F0C1800E46814607F10B05FFF7F7
:10564000EFFF56F804EC162D2EF00304A6F108081F
:1056500040D810221546AF4241D8944275DAC94B62
:10566000996808EB04008842416800F0D98021F075
:10567000010303445B68DB077DD51EF0010F35D0C5
:1056800039464846FFF74CFC0746E0B156F8043C63
:1056900023F001034344A0F108029A4200F0448140
:1056A000221F242A00F23181132A00F204810346CA
:1056B0003246116819605168596092689A603146A3
:1056C000484603F0E1FA4846FFF7ACFF384603B01E
:1056D000BDE8F08F25F00705002D2A46BBDA0C2324
:1056E0000020C9F8003003B0BDE8F08F56F8083C40
:1056F000C3EB080ADAF8043023F0030C04EB0C03C4
:105700009342BDDB5746DAF80C1057F8080F221FFA
:10571000242AC160886000F21781132A40F21281A6
:105720003168CAF808107168CAF80C101B2A00F218
:105730002B8108360AF110023168116071685160DE
:10574000B16891603E461C46D046631B0F2B1DD8A6
:10575000D8F8043003F0010323434444C8F804306C
:10576000636843F0010363604846FFF75BFF304620
:1057700003B0BDE8F08F21F003012144914221DB09
:10578000C36882680C46D3609A60DEE7D8F80420CC
:1057900008EB050102F00102154343F001020B443E
:1057A000C8F804504A605A6842F0010208315A6051
:1057B000484603F069FAD7E7114603B0BDE8F04F59
:1057C000FFF7AEBB1EF0010F7FF45AAF56F8083C4E
:1057D000C3EB080ADAF8043023F0030C01EB0C0EDB
:1057E00096458BDBC36882685746D3609A6057F84A
:1057F000081FDAF80C30CB60221F242A996000F2CF
:105800009980132A62D93368CAF808307368CAF8D5
:105810000C301B2A00F2A08008360AF1100356E073
:1058200021F0030BA34405F11000834559DA1EF063
:10583000010F7FF425AF56F8081CC1EB080ADAF80F
:10584000041021F0030CE34458453FF757AF574687
:10585000DAF80C1057F8080F221F242AC16088605C
:1058600000F2B480132A40F2A5803168CAF808100B
:105870007168CAF80C101B2A00F2AF8008360AF1D2
:1058800010023168116071685160B16891600AEB73
:105890000501C5EB0B0242F0010299604A60DAF89B
:1058A000043003F001031D434846CAF80450FFF7D3
:1058B000B9FE38465CE733680360736843601B2AAF
:1058C00027D800F1080306F10802F2E63B463268E9
:1058D0001A6072685A60B2689A603E467446D04652
:1058E00033E708EB0501C5EB0B0B4BF001029960A8
:1058F0004A6056F8043C03F001031D43484646F84D
:10590000045CFFF78FFE304632E73146FFF7D6FDE5
:10591000D5E6B3688360F368C360242A28D000F119
:10592000100306F11002C4E650F8043C23F0030310
:105930001C440AE7314638467446D046FFF7BEFDA0
:105940003E4602E73A46F7E6314638461C46D04620
:10595000FFF7B4FD3E46F8E6B368CAF81030F368C6
:10596000CAF81430242A1BD010360AF11803AEE707
:10597000336903617369436106F1180200F118038A
:1059800097E600BFC88DFF1FB168CAF81010F16814
:10599000CAF81410242A0FD010360AF11802CBE6E8
:1059A0003369CAF818307369CAF81C3018360AF11E
:1059B00020038CE73A4664E73269CAF81820726916
:1059C000CAF81C2018360AF12002B5E631463846DE
:1059D0000193FFF773FD019B59E7B168CAF81010F6
:1059E000F168CAF81410242A03D010360AF11802FC
:1059F00047E73269CAF818207269CAF81C201836BD
:105A00000AF120023DE700BF38B5074C00230546E8
:105A100008462360FEF70AFC431C00D038BD23680B
:105A2000002BFBD02B6038BD389AFF1F0CB4F0B5AB
:105A3000244B00299DB01D683EDB4FF402730C46D9
:105A400002900690ADF8143023AE17D04C1E229A67
:105A5000049433464FF6FF7702A92846079401962F
:105A6000ADF8167000F066FC421C1BDB029B0022A6
:105A70001A701DB0BDE8F04002B0704733464FF6D3
:105A8000FF77229A049402A9284607940196ADF85C
:105A9000167000F04FFC431C07DB1DB0BDE8F04062
:105AA00002B070478B232B60E0E78B232B601DB087
:105AB000BDE8F04002B070478B232B604FF0FF3001
:105AC000EBE700BF588CFF1FF8B507460E4617F8E6
:105AD000014BFFF713FA20442546437803F00303F4
