:100000000C946E040C9496040C9496040C94960430
:100010000C9496040C9496040C9496040C949604F8
:100020000C9496040C94F4100C9496040C94051201
:100030000C9496040C9496040C9496040C949604D8
:100040000C94AA100C9496040C944F160C94291638
:100050000C9496040C9496040C9496040C949604B8
:100060000C9496040C94960400407A10F35A00A065
:10007000724E18090010A5D4E80000E87648170071
:1000800000E40B54020000CA9A3B000000E1F505B1
:10009000000080969800000040420F000000A086FB
:1000A00001000000102700000000E803000000002D
:1000B0006400000000000A000000000001000000D1
:1000C00000002C76D888DC674F0823DFC1DFAE59EB
:1000D000E1B1B796E5E3E453C63AE651997696E87E
:1000E000E6C28426EB898C9B62ED407C6FFCEFBC02
:1000F0009C9F40F2BAA56FA5F490055A2AF75C932D
:100100006B6CF9676DC11BFCE0E40D47FEF520E662
:10011000B500D0ED902E0300943577050080841E45
:10012000080000204E0A000000C80C333333330FA0
:10013000986E12831141EF8D2114893BE65516CF3D
:10014000FEE6DB18D1844B381BF77C1D901DA4BB49
:10015000E424203284725E228100C9F124ECA1E5FE
:100160003D2764697361626C656400656E61626CF1
:10017000656400436865636B73756D2025532E00BD
:10018000496E76616C696420706172616D65746539
:100190007273004F4646004F4E0041434B2F4E4175
:1001A0004B20526573706F6E7365732025732E003C
:1001B000496E76616C696420706172616D65746509
:1001C0007273004F4646004F4E004C6F67204C65DF
:1001D00076656C2073657420746F2025730045521A
:1001E000524F523A2053455454494E47204E414DA8
:1001F00045204E4F542053504543494649454400FD
:100200004552524F523A20494E56414C4944205390
:10021000455454494E47204E414D4520494E2025D6
:10022000730053656E64696E6720257300534554EF
:1002300054494E473A202553202564004552524FD9
:10024000523A20494E56414C494420535749544351
:10025000482056414C554500535749544348203394
:10026000005357495443482032004F4646004F4EF2
:100270000053574954434820310053455454494E84
:10028000473A202553202553004552524F523A20D9
:1002900059504F53204F5554204F462052414E47FE
:1002A00045202564004552524F523A204D49535340
:1002B000494E472059504F53004552524F523A2011
:1002C00058504F53204F5554204F462052414E47CF
:1002D00045202564004552524F523A204D49535310
:1002E000494E472058504F53004552524F523A20E2
:1002F0004455524154494F4E204F5554204F4620AB
:1003000052414E4745202564004552524F523A20F3
:100310004D495353494E47204455524154494F4E3D
:10032000004552524F523A204D495353494E4720AF
:10033000504152414D45544552530053574954433F
:1003400048203300535749544348203200535749FB
:100350005443482031005354415455533A20534597
:1003600052564F5F583D2569282573292C53455215
:10037000564F5F593D2569282573292C25533D2566
:10038000532C25533D25532C25533D2553004F46D3
:1003900046004F4E004552524F523A205345545456
:1003A000494E47204E414D45204E4F542053504515
:1003B000434946494544004552524F523A20494E1E
:1003C00056414C49442053455454494E47204E41D0
:1003D0004D4520494E20272573270053656E6469DB
:1003E0006E672027257327004552524F523A202727
:1003F000256C6927206973206F7574206F662072E1
:10040000616E67652028256920746F202569292081
:10041000666F72202553004552524F523A202725CD
:100420006C6927206973206F7574206F6620726174
:100430006E67652028256920746F2025692920664C
:100440006F72202553004552524F523A2027256C97
:100450006927206973206F7574206F662072616E42
:1004600067652028256920746F2025692920666F1B
:1004700072202553004552524F523A2027256C696D
:1004800027206973206F7574206F662072616E6714
:10049000652028256920746F2025692920666F72E0
:1004A000202553004552524F523A202725732720CA
:1004B0006973206E6F7420612076616C69642076A8
:1004C000616C756520666F72202553004552524F4E
:1004D000523A2027256C6927206973206F75742094
:1004E0006F662072616E67652028256920746F2011
:1004F00025692920666F72202553004552524F52BC
:100500003A2027256C6927206973206F7574206F46
:10051000662072616E67652028256920746F20252A
:10052000692920666F72202553004552524F523A76
:100530002027257327206973206E6F742061207631
:10054000616C69642076616C756520666F72202528
:1005500053004552524F523A20494E56414C49445D
:10056000205357495443482053544154452027258C
:100570007327004F4646004F4E004552524F523AA5
:1005800020494E56414C4944205357495443482032
:1005900056414C5545004C6F6164696E6720466159
:1005A00063746F72792044656661756C742053655D
:1005B0007474696E6773004552524F523A20535714
:1005C00049544348204E554D424552204F555420E2
:1005D0004F462052414E4745202564004552524F18
:1005E000523A204D495353494E472053574954439B
:1005F00048204E554D424552004552524F523A20E6
:100600004455524154494F4E204F5554204F462097
:1006100052414E4745202564004552524F523A20E0
:100620004D495353494E47204455524154494F4E2A
:10063000004552524F523A204D495353494E47209C
:10064000504152414D455445525300000000002393
:100650000026002900000000080002010000030439
:10066000070000000000000000455945445249566B
:10067000450053544152543A202573202D2076656D
:100680007273696F6E202573004661696C65642022
:10069000746F2073656E642041434B2072657370E4
:1006A0006F6E73652E004661696C656420746F20FF
:1006B00073656E64204E414B20726573706F6E736C
:1006C000652E00436865636B73756D206661696CA8
:1006D00065642E004D697373696E67206368656396
:1006E0006B73756D20736570657261746F722E0027
:1006F0004552524F523A20494E56414C49442043AC
:100700004F4D4D414E440053657474696E677320BC
:1007100053617665642E004C4F473A20494E464F50
:10072000202D200000000000250028002B000000E4
:100730000000240027002A00040404040404040424
:10074000020202020202030303030303010204087C
:10075000102040800102040810200102040810202B
:100760004661696C656420746F20777269746520D6
:100770006D6573736167652E206578706563746954
:100780006E672025642063686172616374657273AB
:10079000207772697474656E2E0053656E7420251F
:1007A0006420627974657320696E20256420736506
:1007B0006E64732E00256325303258004C4F473A43
:1007C000205741524E202D200052656365697665A1
:1007D00064206D657373616765205B25735D0049F7
:1007E0006E76616C6964206D6573736167652072F4
:1007F000656365697665642027257327004C4F473C
:100800003A204552524F52202D20004C4F473A205B
:100810004445425547202D200044454641554C54FF
:10082000530053574954434800494E564552545F6C
:1008300059004D41585F590043454E5445525F5948
:10084000004D494E5F5900494E564552545F58007D
:100850004D41585F580043454E5445525F58004D36
:10086000494E5F5800414C4C00535749544348008F
:10087000494E564552545F59004D41585F59004307
:10088000454E5445525F59004D494E5F5900494EFF
:10089000564552545F58004D41585F580043454EED
:1008A0005445525F58004D494E5F580053415645DC
:1008B000004745540053455400535749544348009A
:1008C0004D4F56450053544F50004C4F4700535422
:1008D00041545553002100230000921C11241FBED7
:1008E000CFEFD8E0DEBFCDBF11E0A0E0B1E0EEE198
:1008F000F2E502C005900D92A63FB107D9F727E0B7
:10090000A6EFB1E001C01D92A133B207E1F714E0F8
:10091000CEE6D4E004C02197FE010E94B828CD366F
:10092000D107C9F70E94DE190C940D290C94000020
:10093000FC0180818F3FB9F090E0FC01EE0FFF1FBA
:100940008E0F9F1FFC01E35AFC4F8181928133E09F
:10095000880F991F3A95E1F744E0969587954A9557
:10096000E1F70296089580E090E008951F93CF93F9
:10097000DF93EC01162FE881F9810680F781E02DE5
:10098000462F60E070E00995E881F9810680F781E3
:10099000E02D412F61E070E0CE010995E881F981F9
:1009A0000680F781E02D412F62E070E0CE01DF91FB
:1009B000CF911F910994CF93DF93EC01662331F01F
:1009C00080E89BE09C012C1B3D0BE901CE010D2E24
:1009D000000CAA0BBB0B9C01AD0120523240410917
:1009E0005109A0E1BEE00E94452720E437E040E045
:1009F00050E00E942627D7FF04C08FEF9FEFDC0155
:100A000004C081E090E0A0E0B0E0BC01CD01620F45
:100A1000731F841F951F22E030E040E050E00E94E9
:100A20002627CA01B9010E94522620E030E040E2A8
:100A300051E40E940B28DF91CF910895CF93C62FE8
:100A400087FD80E0A82F880FBB0B20E83EE00E94C6
:100A50009D2824EB30E040E050E00E942627DA0198
:100A6000C9018F5B9B4FAF4FBF4FAC01BD01759567
:100A7000679557954795CA01CC2321F080E89BE004
:100A8000841B950BCF9108958F929F92AF92BF9246
:100A9000CF92DF92EF92FF920F931F93CF93DF934A
:100AA0001F92CDB7DEB76C01162F842F90E2C916C6
:100AB00092E0D90654F091E6C91699E0D9064CF0B7
:100AC00030E6C32E39E0D32E04C090E2C92E92E066
:100AD000D92E602F29830E941E0561E02981C81646
:100AE000D9060CF460E04C01990FAA08BB080D2C44
:100AF000000CEE08FF08601749F1602F822F0E945A
:100B00001E05FC01A7019601281939094A095B094C
:100B1000A8ECB0E00E9445278F01FF0F220B330B9A
:100B2000A9019801281939094A095B090E94262759
:100B3000CA01B9016F5F7F4F8F4F9F4F22E030E0B6
:100B400040E050E00E942627822F28C0812F0E947B
:100B50001E05FC01A7019601281939094A095B09FC
:100B6000A8ECB0E00E9445278F01FF0F220B330B4A
:100B7000A9019801281939094A095B090E94262709
:100B8000CA01B9016F5F7F4F8F4F9F4F22E030E066
:100B900040E050E00E942627822F81950F90DF9140
:100BA000CF911F910F91FF90EF90DF90CF90BF906A
:100BB000AF909F908F90089581E0089581E008950F
:100BC00080E0089580E0089580E0089580E0089531
:100BD0000F931F93CF93DF931F92CDB7DEB78C0196
:100BE000FC01EE0FFF1FE15CFE4F80819181698364
:100BF0000E94EF156981662361F0F801E35FFD4F04
:100C00006089C8010F90DF91CF911F910F910C94D3
:100C1000DA160F90DF91CF911F910F910895CB01BC
:100C20006330710518F4642F0C94E8050895CF9390
:100C3000DF93CCEDD6E081E0888361E082E090E054
:100C40000E94E8051882DF91CF910895CF93DF933A
:100C5000CCEDD6E081E0888361E081E090E00E9405
:100C6000E8051882DF91CF910895CF93DF93CCED03
:100C7000D6E081E0888361E080E090E00E94E805B2
:100C80001882DF91CF91089580912102811103C0D4
:100C90008AE692E002C08EE692E09F938F9380E70F
:100CA00098E09F938F938AE792E09F938F9380EBD6
:100CB00093E09F938F930E94C4188DB79EB70896B8
:100CC0000FB6F8949EBF0FBE8DBF089580911C0291
:100CD000282F082E000C330B3F938F9389E798E061
:100CE0009F938F938DE292E09F938F9380EB93E09D
:100CF0009F938F930E94C4188DB79EB708960FB626
:100D0000F8949EBF0FBE8DBF089580911A02282FC0
:100D1000082E000C330B3F938F938FE798E09F933F
:100D20008F938DE292E09F938F9380EB93E09F935C
:100D30008F930E94C4188DB79EB708960FB6F8948B
:100D40009EBF0FBE8DBF089580911B02282F082ED5
:100D5000000C330B3F938F9388E898E09F938F9319
:100D60008DE292E09F938F9380EB93E09F938F931C
:100D70000E94C4188DB79EB708960FB6F8949EBF10
:100D80000FBE8DBF089580912002811103C08AE6B5
:100D900092E002C08EE692E09F938F938EE898E0F7
:100DA0009F938F938AE792E09F938F9380EB93E0DA
:100DB0009F938F930E94C4188DB79EB708960FB665
:100DC000F8949EBF0FBE8DBF089580911902282F01
:100DD000082E000C330B3F938F9387E998E09F9385
:100DE0008F938DE292E09F938F9380EB93E09F939C
:100DF0008F930E94C4188DB79EB708960FB6F894CB
:100E00009EBF0FBE8DBF089580911702282F082E18
:100E1000000C330B3F938F938DE998E09F938F9352
:100E20008DE292E09F938F9380EB93E09F938F935B
:100E30000E94C4188DB79EB708960FB6F8949EBF4F
:100E40000FBE8DBF089580911802282F082E000C28
:100E5000330B3F938F9386EA98E09F938F938DE2B5
:100E600092E09F938F9380EB93E09F938F930E94E8
:100E7000C4188DB79EB708960FB6F8949EBF0FBEE4
:100E80008DBF089580E090E00E94230780E090E00D
:100E90000E94040780E090E00E94E50680E090E078
:100EA0000E94C30680E090E00E94A40680E090E0EB
:100EB0000E94850680E090E00E94660680E090E057
:100EC0000E94440680911D02811103C08AE692E0CF
:100ED00002C08EE692E09F938F9381E792E09F930A
:100EE0008F938AE792E09F938F9380EB93E09F9399
:100EF0008F930E94C4188DB79EB708960FB6F894CA
:100F00009EBF0FBE8DBF80911E02811103C08AE675
:100F100092E002C08EE692E09F938F9381E692E08A
:100F20009F938F938AE792E09F938F9380EB93E058
:100F30009F938F930E94C4188DB79EB708960FB6E3
:100F4000F8949EBF0FBE8DBF80911F02811103C018
:100F50008AE692E002C08EE692E09F938F9388E546
:100F600092E09F938F938AE792E09F938F9380EB19
:100F700093E09F938F930E94C4188DB79EB70896F5
:100F80000FB6F8949EBF0FBE8DBF0895CF92DF922B
:100F9000EF92FF924AE050E060E070E00E94BA1EDB
:100FA00020911A02C22E022E000CDD08EE08FF0866
:100FB0006C157D058E059F0544F06731710581052F
:100FC00091051CF460931C0223C042E358E05F9338
:100FD0004F931F9236E13F93422F022E000C550B88
:100FE0005F932F939F938F937F936F938BEF94E0F7
:100FF0009F938F9380EB93E09F938F930E94C418ED
:101000008DB79EB70E960FB6F8949EBF0FBE8DBFDC
:1010100080E090E0FF90EF90DF90CF900C94660618
:10102000CF92DF92EF92FF924AE050E060E070E0F2
:101030000E94BA1E209117026A3E3FEF7307830792
:10104000930774F0C22E022E000CDD08EE08FF0894
:10105000C616D706E806F9061CF060931B0224C0EA
:1010600041E458E05F934F93422F022E000C550B42
:101070005F932F932FEF2F932AEE2F939F938F93AE
:101080007F936F9385E794E09F938F9380EB93E03A
:101090009F938F930E94C4188DB79EB70E960FB67C
:1010A000F8949EBF0FBE8DBF80E090E0FF90EF9060
:1010B000DF90CF900C94A406CF92DF92EF92FF9234
:1010C0004AE050E060E070E00E94BA1E20911702F2
:1010D000C22E022E000CDD08EE08FF086C157D05FF
:1010E0008E059F0544F067317105810591051CF45B
:1010F0006093190223C040E558E05F934F931F921D
:1011000036E13F93422F022E000C550B5F932F9335
:101110009F938F937F936F9386E494E09F938F9335
:1011200080EB93E09F938F930E94C4188DB79EB776
:101130000E960FB6F8949EBF0FBE8DBF80E090E074
:10114000FF90EF90DF90CF900C94E506CF92DF9266
:10115000EF92FF924AE050E060E070E00E94BA1E19
:10116000209117026A3E3FEF73078307930774F0DD
:10117000C22E022E000CDD08EE08FF08C616D706A8
:10118000E806F9061CF06093180224C04FE558E009
:101190005F934F93422F022E000C550B5F932F93BA
:1011A0002FEF2F932AEE2F939F938F937F936F931D
:1011B00088EE93E09F938F9380EB93E09F938F93C0
:1011C0000E94C4188DB79EB70E960FB6F8949EBFB6
:1011D0000FBE8DBF80E090E0FF90EF90DF90CF904A
:1011E0000C9423074F925F926F927F92AF92BF92BF
:1011F000CF92DF92EF92FF920F931F93CF93DF93E3
:1012000000D0CDB7DEB78C017B01672B19F481E3E9
:1012100096E011C04AE050E0BE016F5F7F4FC7010A
:101220000E94CB1F2B013C01A980BA80AE14BF04E1
:10123000C1F489E196E09F938F9380EB93E09F93B5
:101240008F930E94C418D801ED91FC910084F18520
:10125000E02D61E0C80109950F900F900F900F905D
:101260006BC06131B7E27B078105910538F07F9251
:101270006F925F926F9389EF95E023C04AE050E050
:10128000BE016F5F7F4FC5010E94BA1E6B017C01DA
:10129000A1E0CA1AD108E108F10829813A812A158A
:1012A0003B0519F48CED95E0C6CFB3E0CB16D10425
:1012B000E104F104E8F09F938F937F936F9387EBA2
:1012C00095E09F938F9380EB93E09F938F930E9481
:1012D000C418D801ED91FC910084F185E02D61E006
:1012E000C80109950FB6F894DEBF0FBECDBF24C06C
:1012F000D801ED91FC910680F781E02D40E0B60128
:10130000C8010995F601E35FFD4F608981E0682718
:10131000C6010E94DA16411451046104710461F09F
:10132000C601880F991FFC01E15CFE4FB301A201C9
:10133000808191810E94B4150F900F90DF91CF9121
:101340001F910F91FF90EF90DF90CF90BF90AF90E3
:101350007F906F905F904F900895CF93DF931F928F
:10136000CDB7DEB783EC99E069830E94EF15698100
:10137000662329F00F90DF91CF910C94AE190F9056
:10138000DF91CF910895CF93DF93CCEDD6E081E04C
:10139000888361E08AE091E00E94AD091882DF91C4
:1013A000CF910895CF92DF92EF92FF924AE050E002
:1013B00060E070E00E94BA1E20911B02C22E022E35
:1013C000000CDD08EE08FF0830911C026C157D054D
:1013D0008E059F0574F0C32E032E000CDD08EE0869
:1013E000FF08C616D706E806F9061CF060931A0235
:1013F00026C048E358E05F934F93432F032E000C21
:10140000550B5F933F93422F022E000C550B5F93B9
:101410002F939F938F937F936F938CEC94E09F9384
:101420008F9380EB93E09F938F930E94C4188DB7A6
:101430009EB70E960FB6F8949EBF0FBE8DBF0E944A
:10144000AE1980E090E0FF90EF90DF90CF900C9489
:101450008506CF92DF92EF92FF924AE050E060E083
:1014600070E00E94BA1E20911802C22E022E000CBB
:10147000DD08EE08FF08309119026C157D058E0518
:101480009F0574F0C32E032E000CDD08EE08FF0844
:10149000C616D706E806F9061CF06093170226C0A8
:1014A00046E558E05F934F93432F032E000C550BF6
:1014B0005F933F93422F022E000C550B5F932F93A7
:1014C0009F938F937F936F9387E194E09F938F9384
:1014D00080EB93E09F938F930E94C4188DB79EB7C3
:1014E0000E960FB6F8949EBF0FBE8DBF0E94AE1928
:1014F00080E090E0FF90EF90DF90CF900C94040795
:1015000083EC99E00E94EF1560E088E091E00E9492
:10151000B6040C94B219CF92DF92EF92FF920F9320
:101520001F93CF93DF9300D0CDB7DEB7009711F4B0
:1015300080E038C0FC01A081B181FD010190002054
:10154000E9F73197EA1BFB0B99F39D01EA0FFB1FAB
:1015500079012E173F0761F32F5F3F4FD7014C9161
:101560004032B1F36B018C014AE050E0BE016F5F85
:101570007F4FC7010E94BA1EDC01CB010197A10970
:10158000B10929813A81E216F30691F2833091057F
:10159000A105B10568F6F60191838083D8012D93EA
:1015A0003C9381E00F900F90DF91CF911F910F91AD
:1015B000FF90EF90DF90CF900895CF93DF9300D00E
:1015C00000D0CDB7DEB79C838B83BE016F5F7F4FAA
:1015D000CE0103960E948B0A81110FC08CE392E02A
:1015E0009F938F9380EB93E09F938F930E94C418F7
:1015F0000F900F900F900F9027C0E981FA81DF01C3
:10160000A35FBD4F50968C91811103C08AE692E092
:1016100002C08EE692E09F938F93EE0FFF1FE75C70
:10162000FE4F81818F9380818F938AE792E09F9311
:101630008F9380EB93E09F938F930E94C4180FB613
:10164000F894DEBF0FBECDBF0F900F900F900F909C
:10165000DF91CF910895EF92FF920F931F93CF9355
:10166000DF93FB0111821082009739F19C01E9019F
:101670002F5F3F4F48814032D1F37B018C0160E204
:1016800070E0CE010E94D628009769F46AE370E00A
:10169000CE010E94D628009731F4F8010190002075
:1016A000E9F7CF0101978C179D0739F08C1B9D0B33
:1016B000F70191838083CE0102C080E090E0DF914A
:1016C000CF911F910F91FF90EF9008950C94AE145D
:1016D000CF93DF93EC0126E935E03F932F9328ED7C
:1016E00035E03F932F930E94811769E676E08DE005
:1016F00092E00E94EF20EDE0F2E083E08187128625
:101700002AEE238796E1948715862687978781E0BE
:10171000838B148A108A118A128A0E94AE140F9049
:101720000F900F900F90CE01DF91CF910C94420754
:10173000EF92FF920F931F93CF93DF9300D000D0CF
:10174000CDB7DEB79C838B837C01BE016F5F7F4F7B
:10175000CE0103960E948B0A81110FC08AE795E0A3
:101760009F938F9380EB93E09F938F930E94C41875
:101770000F900F900F900F9040C00B811C81F801CB
:101780008081803229F40F5F1F4F1C830B83F5CFBC
:1017900042E050E067E775E0C8010E94FF20892B16
:1017A00039F4E981FA81E35FFD4F81E0808B22C04B
:1017B00043E050E063E775E0C8010E94FF20892BF9
:1017C00031F4E981FA81E35FFD4F108A13C01F9362
:1017D0000F9382E595E09F938F9380EB93E09F9327
:1017E0008F930E94C4180F900F900F900F900F903E
:1017F0000F9003C0C7010E94DD0A0F900F900F9059
:101800000F90DF91CF911F910F91FF90EF9008956E
:10181000CF93DF93EC01019628812032D9F343E086
:1018200050E067E775E0CE010E94FF20892B21F48C
:1018300081E08093200224C043E050E063E775E03C
:10184000CE010E94FF20892B19F41092200218C0AB
:1018500087E498E09F938F93DF93CF938AE295E09C
:101860009F938F9380EB93E09F938F930E94C41874
:101870008DB79EB708960FB6F8949EBF0FBE8DBF6A
:101880000E94AE1980E090E0DF91CF910C94C306E6
:10189000CF93DF93EC01019628812032D9F343E006
:1018A00050E067E775E0CE010E94FF20892B21F40C
:1018B00081E08093210224C043E050E063E775E0BB
:1018C000CE010E94FF20892B19F41092210218C02A
:1018D00089E298E09F938F93DF93CF9384EA94E01B
:1018E0009F938F9380EB93E09F938F930E94C418F4
:1018F0008DB79EB708960FB6F8949EBF0FBE8DBFEA
:101900000E94AE1980E090E0DF91CF910C944406E4
:101910008F929F92AF92BF92CF92DF92EF92FF92FF
:101920000F931F93CF93DF9300D0CDB7DEB75B014A
:10193000BE016F5F7F4FC5010E942B0BF82EE92E71
:1019400089809A808114910479F485E993E09F93CA
:101950008F9380EB93E09F938F930E94C4180F9016
:101960000F900F900F9048C098E8C92E93E0D92EA1
:1019700000E010E0F60160817181A4018F2D9E2DA1
:101980000E94FF20892BF1F4EF92FF928BED93E000
:101990009F938F9388ED95E09F938F930E9481177B
:1019A000000F111F000F111FF801E857FC4F29818C
:1019B0003A81C90101960280F381E02D8A0D9B1DB9
:1019C000099514C00F5F1F4FF4E0CF0ED11C0A30F1
:1019D000110581F6EF92FF9287EB93E09F938F932F
:1019E00080EB93E09F938F930E94C4180F900F9009
:1019F0000F900F900F900F900F900F90DF91CF915D
:101A00001F910F91FF90EF90DF90CF90BF90AF901C
:101A10009F908F9008958F929F92AF92BF92CF9296
:101A2000DF92EF92FF920F931F93CF93DF9300D03B
:101A3000CDB7DEB75B01BE016F5F7F4FC5010E946E
:101A40002B0BF82EE92E89809A808114910439F0AD
:101A50009FEDC92E96E0D92E00E010E00FC08EED6C
:101A600091E09F938F9380EB93E09F938F930E94DD
:101A7000C4180F900F900F900F9040C0F601608136
:101A80007181A4018F2D9E2D0E94FF20F4E0CF0EC6
:101A9000D11C892BE1F4EF92FF9282E292E09F93B6
:101AA0008F9388ED95E09F938F930E948117000F8D
:101AB000111F000F111FF801E152F94F89819A811E
:101AC0000280F381E02D8A0D9B1D099511C00F5FE7
:101AD0001F4F0A30110591F6EF92FF9280E092E0DD
:101AE0009F938F9380EB93E09F938F930E94C418F2
:101AF0000F900F900F900F900F900F900F900F90EE
:101B0000DF91CF911F910F91FF90EF90DF90CF90D9
:101B1000BF90AF909F908F9008952F923F924F92D9
:101B20005F926F927F928F929F92AF92BF92CF926D
:101B3000DF92EF92FF920F931F93CF93DF93CDB776
:101B4000DEB72F970FB6F894DEBF0FBECDBF009162
:101B5000200220911902265A40911702465A60919C
:101B60001802665A82E893E02D874E876F870E949D
:101B700098042D854E856F850E944405B82E0091EE
:101B8000210220911C02265A40911A02465A609165
:101B90001B02665A85E893E02D874E876F870E9467
:101BA00098042D854E856F850E944405A82E60916E
:101BB000200282E893E06F870E9498046F850E945C
:101BC000DB046B017C016091210285E893E06F8763
:101BD0000E9498046F850E94DB042B013C011E01CA
:101BE00027E0220E311C20E030E044EB52E4C70134
:101BF000B6010E949E27810121E043E00E949A1EC7
:101C000020E030E044EB52E4C301B2010E949E2781
:101C10009E012F5F3F4F4901890121E043E00E946F
:101C20009A1E83E00E948116892B29F49EE8C92E12
:101C300093E0D92E04C082E9C82E83E0D82E85E037
:101C40000E948116892B19F40EE813E002C002E904
:101C500013E087E00E948116892B19F42EE833E007
:101C600002C022E933E0DF92CF928BE393E09F93AF
:101C70008F931F930F9384E493E09F938F933F93ED
:101C80002F938DE493E09F938F939F928F928A2D51
:101C90000A2C000C990B9F93AF923F922F928B2DA1
:101CA0000B2C000C990B9F93BF9286E593E09F93BA
:101CB0008F931F9280E88F9302E212E01F930F939D
:101CC0000E940D211F930F9380EB93E09F938F93BE
:101CD0000E94F7180FB6F894DEBF0FBECDBF2F9647
:101CE0000FB6F894DEBF0FBECDBFDF91CF911F912D
:101CF0000F91FF90EF90DF90CF90BF90AF909F90AB
:101D00008F907F906F905F904F903F902F900895AD
:101D10002F923F924F925F926F927F928F929F92FB
:101D2000AF92BF92CF92DF92EF92FF920F931F93E9
:101D3000CF93DF9300D0CDB7DEB78C015B01672B6B
:101D400019F481E293E011C04AE050E0BE016F5FF8
:101D50007F4FC5010E94CB1F6B017C0189809A8057
:101D60008A149B04C1F489E093E09F938F9380EBE6
:101D700093E09F938F930E94C418D801ED91FC913A
:101D80000680F781E02D61E0C80109950F900F9062
:101D90000F900F9083C06131B7E27B0781059105F9
:101DA00038F0FF92EF92DF926F9389EE92E047C096
:101DB0004AE050E0BE016F5F7F4FC4010E94BA1E2F
:101DC0002B013C0129803A802814390419F485ED4F
:101DD00092E0CBCFDC01CB018C599F4FAF4FBF4F6F
:101DE000893C9105A105B10538F07F926F925F9211
:101DF0004F9289EB92E023C04AE050E0BE016F5F52
:101E00007F4FC1010E94BA1E4B015C0189819A81FA
:101E10008215930519F485EA92E0A7CFD501C40194
:101E20008C599F4FAF4FBF4F893C9105A105B1051C
:101E3000E8F0BF92AF929F928F9289E892E09F93D1
:101E40008F9380EB93E09F938F930E94C418D801E7
:101E5000ED91FC910680F781E02D61E0C8010995C4
:101E60000FB6F894DEBF0FBECDBF18C0D801ED91FC
:101E7000FC910680F781E02D60E0C8010995682D8E
:101E8000842D0E944C19C114D104E104F10431F0F5
:101E9000B701A60183EC99E00E94B4150F900F9052
:101EA000DF91CF911F910F91FF90EF90DF90CF9036
:101EB000BF90AF909F908F907F906F905F904F906A
:101EC0003F902F90089580EF96E09F938F9380EB43
:101ED00093E09F938F930E94E5140F900F900F90C3
:101EE0000F900895CF93DF93EB0188818823F9F059
:101EF00066E271E0CE010E94C328892BC1F061E245
:101F000071E0CE010E94C328892BA1F06CE171E041
:101F1000CE010E94C328892B81F066E171E0CE01D9
:101F20000E94C328892B61F084E090E00BC080E020
:101F300090E008C081E090E005C082E090E002C03F
:101F400083E090E09093DE068093DD068430910577
:101F500041F0880F991FFC01EF5CFE4F8081918159
:101F600002C08CE291E09F938F938AEC91E09F9363
:101F70008F9388ED95E09F938F930E9481170F9028
:101F80000F900F900F900F900F90DF91CF910895C9
:101F9000CB01FB0101900020E9F731979F01261B3F
:101FA000370B2230310581F567EC71E00E94E620A5
:101FB000892BB1F180EB91E09F938F9388ED95E0B1
:101FC0009F938F930E9498170F900F900F900F90F0
:101FD0008091B305811103C08DEE91E002C085EEC2
:101FE00091E09F938F938AE991E09F938F9388ED7F
:101FF00095E09F938F930E9481170F900F900F9001
:102000000F900F900F9008952330310569F463EC21
:1020100071E00E94E620892B69F61092B305D8CFB3
:1020200081E08093B305D4CF232B21F69091B305A3
:1020300081E08927F6CFCB01FB0101900020E9F771
:1020400031979F01261B370B2230310581F567E957
:1020500071E00E94E620892BB1F180E891E09F9326
:102060008F9388ED95E09F938F930E9498170F9020
:102070000F900F900F908091B205811103C082E6FE
:1020800091E002C08BE691E09F938F9383E791E00C
:102090009F938F9388ED95E09F938F930E94811774
:1020A0000F900F900F900F900F900F900895233086
:1020B000310569F463E971E00E94E620892B69F635
:1020C0001092B205D8CF81E08093B205D4CF232BF4
:1020D00021F69091B20581E08927F6CF2FB7F894C9
:1020E0006091FC017091FD018091FE019091FF01D2
:1020F0002FBF08950F931F93CF93DF9300D000D08D
:10210000CDB7DEB7E0E7F0E080818E7F80830E946C
:102110006E100FE313E0D8015C96ED91FC915D9792
:1021200010820180F281E02D69837A838B839C8306
:102130000995F801158E148E69817A818B819C81B5
:102140000F900F900F900F90DF91CF911F910F91F3
:102150000C941B151F920F920FB60F9211242F9300
:102160003F938F939F93AF93BF938091FC01909186
:10217000FD01A091FE01B091FF013091FB0123E030
:10218000230F2D3720F40196A11DB11D05C026E8AF
:10219000230F0296A11DB11D2093FB018093FC012A
:1021A0009093FD01A093FE01B093FF018091F70190
:1021B0009091F801A091F901B091FA010196A11D49
:1021C000B11D8093F7019093F801A093F901B093AA
:1021D000FA01BF91AF919F918F913F912F910F90F5
:1021E0000FBE0F901F9018951F920F920FB60F926F
:1021F00011242F933F934F935F936F937F938F930C
:102200009F93AF93BF93EF93FF93809105029091BB
:1022100006028093B2008091010290910202A09187
:102220000302B09104020196A11DB11D8093010229
:1022300090930202A0930302B093040280910102E2
:1022400090910202A0910302B09104024091090210
:1022500050910A0260910B0270910C02841795074D
:10226000A607B70710F18091000281111EC081E01E
:10227000809300028091010290910202A0910302DA
:10228000B0910402841B950BA60BB70B809301023F
:1022900090930202A0930302B0930402E09107021C
:1022A000F0910802099510920002FF91EF91BF9101
:1022B000AF919F918F917F916F915F914F913F91DE
:1022C0002F910F900FBE0F901F901895FC019081D9
:1022D0009C3080F5818128E830E0281B310987FD9A
:1022E0003395220F331F220F331F621773077CF0C1
:1022F000828128E532E0281B310987FD3395220FC2
:10230000331F220F331F621773070CF49B012250F7
:102310003109220F331F4FB7F894892F90E0FC0149
:10232000EE0FFF1F8E0F9F1FFC01E35AFC4F3283FD
:1023300021834FBF08950F931F93CF93DF931F9275
:10234000CDB7DEB78C01DC018C918C3008F055C024
:10235000862F69830E942D19F8018081E82FF0E013
:102360009F01220F331FE20FF31FE35AFC4F6981D5
:102370006F739081907C692B6083D80111961C92B9
:10238000119712961C926CE00E947D28BCE08B9FF6
:10239000B001112440E050E09A01260F371FF901E7
:1023A000EE0FFF1F2E0F3F1FF901E35AFC4F9081E4
:1023B00096FD16C04F5F5F4F4C30510569F7811194
:1023C0000FC01092800082E08093810010928500FF
:1023D00010928400B19A80916F00826080936F00A8
:1023E000D801EC91F0E0CF01880F991FE80FF91F99
:1023F000E35AFC4F808180648083F80180810F90D4
:10240000DF91CF911F910F9108951F920F920FB6F8
:102410000F9211242F933F934F935F936F937F936A
:102420008F939F93AF93BF93EF93FF938091F601A8
:1024300087FF05C010928500109284001BC0209178
:10244000F601022E000C330B8091810390E02817D7
:10245000390784F48091F601082E000C990BFC01D9
:10246000EE0FFF1F8E0F9F1FFC01E35AFC4F808170
:1024700086FD15C08091F6018F5F8093F601209153
:10248000F601022E000C330B8091810390E0281797
:102490003907C4F48091F6018C3064F113C0809147
:1024A000F601082E000C990BFC01EE0FFF1F8E0F9A
:1024B0009F1FFC01E35AFC4F808160E08F730E94F4
:1024C000AA16D8CF8091840090918500049680341C
:1024D0009C4918F480E49CE905C0809184009091A7
:1024E0008500049690938900809388008FEF8093F5
:1024F000F6013BC020918400309185008091F60167
:10250000082E000C990BFC01EE0FFF1F8E0F9F1F72
:10251000FC01E35AFC4F81819281820F931F9093BB
:102520008900809388008091F601082E000C990B99
:10253000FC01EE0FFF1F8E0F9F1FFC01E35AFC4FA3
:10254000808186FF12C08091F601082E000C990B45
:10255000FC01EE0FFF1F8E0F9F1FFC01E35AFC4F83
:10256000808161E08F730E94AA16FF91EF91BF9165
:10257000AF919F918F917F916F915F914F913F911B
:102580002F910F900FBE0F901F901895AF92BF9292
:10259000CF92DF92EF92FF920F93CF93A82F862FC7
:1025A000F42EAC3944F0CA2FA53614F0C4E626C088
:1025B000A7FF24C001C0CCE9602F0E941E055C016A
:1025C000602F8F2D0E941E05880F991F6C01990F97
:1025D000EE08FF088C2F992781950CF49095DC016B
:1025E0009501220F331FA901330F660B770B9A0158
:1025F000AB012C193D094E095F091FC0602F822FC6
:102600000E941E055C01602F8F2D0E941E05880F01
:10261000991F6C01990FEE08FF089501220F331FD7
:10262000C901330FAA0BBB0B9C01AD012C193D094D
:102630004E095F09AC2FCC0FBB0B0E94502724E63C
:1026400030E040E050E00E942627DA01C9018C0DFD
:102650009D1DAE1DBF1DBC01CD016F5F7F4F8F4F14
:102660009F4F22E030E040E050E00E942627C90161
:10267000CF910F91FF90EF90DF90CF90BF90AF90F0
:102680000895EF92FF920F931F93CF93DF930097DC
:1026900011F09C0103C080E090E024C089012F5F0D
:1026A0003F4FF80140814032C9F37B01EC0160E209
:1026B00070E00E94D628009761F463E270E0CE01DA
:1026C0000E94D628009729F409900020E9F7CE014E
:1026D0000197EC01C01BD10BF701D183C083CD2B37
:1026E000D1F2C801DF91CF911F910F91FF90EF9030
:1026F0000895CF92DF92EF92FF920F931F93CF93A3
:10270000DF936C017A018B01C0E0D0E0CE15DF05CC
:1027100089F0D8016D918D01D601ED91FC91019068
:10272000F081E02DC6010995892B11F47E0102C0CC
:102730002196ECCFC701DF91CF911F910F91FF90B0
:10274000EF90DF90CF900895089580E090E0089595
:10275000FC01538D448D252F30E0842F90E0821BA7
:10276000930B541710F0CF96089501970895FC012C
:10277000918D828D981761F0828DDF01A80FB11DB8
:102780005D968C91928D9F5F9F73928F90E00895DC
:102790008FEF9FEF0895FC01918D828D981731F096
:1027A000828DE80FF11D858D90E008958FEF9FEFEA
:1027B0000895FC01918D228D892F90E0805C9F4FC0
:1027C000821B91098F739927089582EA92E00E94F3
:1027D000D91321E0892B09F420E0822F0895FC0110
:1027E000848DDF01A80FB11DA35ABF4F2C91848D9A
:1027F00090E001968F739927848FA689B7892C93CF
:10280000A089B1898C9180648C93938D848D981369
:1028100006C00288F389E02D80818F7D8083089532
:10282000EF92FF920F931F93CF93DF93EC0181E020
:10283000888F9B8D8C8D981305C0E889F9898081DC
:1028400085FD24C0F62E0B8D10E00F5F1F4F0F7318
:102850001127E02E8C8DE8120CC00FB607FCFACFC2
:10286000E889F989808185FFF5CFCE010E94EF13B9
:10287000F1CF8B8DFE01E80FF11DE35AFF4FF0827F
:102880000B8FEA89FB898081806207C0EE89FF890E
:102890006083E889F98980818064808381E090E0A9
:1028A000DF91CF911F910F91FF90EF900895CF93FB
:1028B000DF93EC01888D8823C9F0EA89FB89808148
:1028C00085FD05C0A889B9898C9186FD0FC00FB61A
:1028D00007FCF5CF808185FFF2CFA889B9898C915B
:1028E00085FFEDCFCE010E94EF13E7CFDF91CF91AF
:1028F000089580E090E0892B29F00E94E513811172
:102900000C9400000895833081F028F4813099F010
:102910008230A1F008958730A9F08830B9F0843072
:10292000D1F4809180008F7D03C0809180008F77EB
:1029300080938000089584B58F7702C084B58F7D21
:1029400084BD08958091B0008F7703C08091B0005E
:102950008F7D8093B00008950E94BE28EF92FF9271
:102960000F931F93CF93DF931F92CDB7DEB70DE088
:1029700012E0E12CF12CF80161918F01C70169830C
:102980000E94DE266981681719F0C7010E94E626B9
:10299000FFEFEF1AFF0A85E1E816F10461F787E01F
:1029A00097E09F938F9388ED95E09F938F930E947C
:1029B000C8190F900F900F900F900F90DF91CF914B
:1029C0001F910F91FF90EF900895CF93DF93CDB7B4
:1029D000DEB72091B10330E82303C00111249E012A
:1029E000275F3F4F40EF56E060E870E08E549C4F09
:1029F0000E943D218091B103082E000C990B019695
:102A000024E030E0B9010E9489288093B1039091BD
:102A1000B1038091B00398130BC08091B003082ECE
:102A2000000C990B0196B9010E9489288093B0038C
:102A3000DF91CF910895CF92DF92EF92FF920F93A3
:102A40001F93E0915B03F0915C03AFE3B3E02C9143
:102A50002223D1F03097B9F0C380D480E580F6808E
:102A6000C61AD70AE80AF90A13960D911D912D91FD
:102A70003C911697061B170B280B390B0C151D05DF
:102A80002E053F0508F4FD01179623E0AB35B2078C
:102A9000F1F6F0935C03E0935B03309709F45DC0BB
:102AA000038114812581368168017901C61AD70A0C
:102AB000E80AF90AD701C60121F481E090E0A0E01C
:102AC000B0E08093090290930A02A0930B02B093A6
:102AD0000C028AE790E190930802809307028091AC
:102AE00070008E7F809370008091B0008C7F809307
:102AF000B0008091B100877F8093B1008091B600D3
:102B00008F7D8093B600809170008D7F80937000E0
:102B10008091B10084608093B1008091B1008C7F7E
:102B20008093B10086E090E09093060280930502C6
:102B300010920102109202021092030210920402FB
:102B40001092000280910502909106028093B200DB
:102B5000809170008160809370001F910F91FF90B1
:102B6000EF90DF90CF900895CF92DF92EF92FF9297
:102B7000CF93DF93EC016A017B010E946E102091DC
:102B800070002E7F20937000EFE3F3E020E030E050
:102B90004081411115C047E0429FF001439FF00D75
:102BA0001124E15CFC4FD283C183C60ED71EE81E00
:102BB000F91EC382D482E582F68221E0208306C01A
:102BC0002F5F3F4F37962430310511F70E941B15B8
:102BD000DF91CF91FF90EF90DF90CF900895CF934A
:102BE000DF93EC010E946E10209170002E7F2093E5
:102BF0007000E0915B03F0915C03309729F0218134
:102C000032812C173D0701F1EFE3F3E020E030E0E3
:102C10004081442379F0418152814C175D0751F482
:102C200047E0429FF001439FF00D1124E15CFC4F0F
:102C3000108206C02F5F3F4F37962430310541F791
:102C4000DF91CF910C941B1510925C0310925B03E3
:102C5000DBCF1F920F920FB60F9211242F933F9349
:102C60004F935F936F937F938F939F93AF93BF9394
:102C7000EF93FF9382EA92E00E94EF13FF91EF91AE
:102C8000BF91AF919F918F917F916F915F914F9184
:102C90003F912F910F900FBE0F901F9018951F928C
:102CA0000F920FB60F9211242F938F939F93EF9350
:102CB000FF93E091B202F091B3028081E091B802FB
:102CC000F091B90282FD12C090818091BB028F5FAA
:102CD0008F732091BC02821751F0E091BB02F0E0AB
:102CE000EE55FD4F958F8093BB0201C08081FF910F
:102CF000EF919F918F912F910F900FBE0F901F908A
:102D00001895CF93DF93282F30E0F901EB5AF94F54
:102D10008491F901E45BF84FD491F901E85CF84F34
:102D2000C491CC2391F081110E948314EC2FF0E028
:102D3000EE0FFF1FE55BF94FA591B491EC91ED23E8
:102D400081E090E021F480E002C080E090E0DF913B
:102D5000CF9108951F93CF93DF93282F30E0F9018F
:102D6000EB5AF94F8491F901E45BF84FD491F901E2
:102D7000E85CF84FC491CC23C9F0162F81110E9452
:102D80008314EC2FF0E0EE0FFF1FEC5DF84FA591E0
:102D9000B4918FB7F894111105C09C91ED2FE09577
:102DA000E92302C0EC91ED2BEC938FBFDF91CF9123
:102DB0001F9108958730910570F4FC01EE0FFF1FFD
:102DC000ED59FE4F80810E94AA1660E070E080E11C
:102DD00091E00C948D0D0895AF92BF92CF92DF9247
:102DE000EF92FF920F931F93CF93DF93CDB7DEB790
:102DF000C058D1090FB6F894DEBF0FBECDBF8C010D
:102E00006B015A010E94F6207C01B8018E010F5F10
:102E10001F4FC8010E94EF208EE790E0BC016E19A1
:102E20007F099501A601C8018E0D9F1D0E943D21BD
:102E3000009791F1E80EF91EF801EE0DFF1D8AE0F2
:102E40008083FE01EE0DFF1D12828091DC06882337
:102E5000B1F0D8018D918823F9F0E091DA06F09174
:102E6000DB06E852FA4F80838091DA069091DB0608
:102E7000019699279093DB068093DA06EBCFF80151
:102E800001900020E9F73197AF01401B510BB801C9
:102E900082EA92E00E947913C058DF4F0FB6F8948F
:102EA000DEBF0FBECDBFDF91CF911F910F91FF907D
:102EB000EF90DF90CF90BF90AF9008952091D8060B
:102EC0003091D9068091DA069091DB0628173907F0
:102ED000B9F06091D8067091D90668527A4F41E0F6
:102EE00050E082EA92E00E9479138091D806909196
:102EF000D906019699279093D9068093D806DECFFC
:102F00000895CF93DF93CDB7DEB78091DD06909122
:102F1000DE06181619064CF0AE01475F5F4F6F8151
:102F200078858BE098E00E94EC16DF91CF910895B0
:102F3000CF93DF93CDB7DEB78091DD069091DE06AB
:102F400004974CF4AE01475F5F4F6F8178858DEF3A
:102F500097E00E94EC16DF91CF9108958091D605FD
:102F60009091D705892B59F18091D4059091D50581
:102F7000892BA1F084EB95E09F938F938FED97E0E1
:102F80009F938F9388ED95E09F938F930E9498175E
:102F90000F900F900F900F900F900F908091D7058A
:102FA0008F938091D6058F9388ED95E09F938F93B3
:102FB0000E9498170F900F900F900F90089584EB38
:102FC00095E09F938F9389EC97E09F938F9388ED83
:102FD00095E09F938F930E9481170F900F900F9011
:102FE0000F900F900F900895CF93DF93CDB7DEB77A
:102FF0008091DD069091DE0603974CF4AE01475FA9
:103000005F4F6F8178858CEB97E00E94EC16DF9123
:10301000CF9108958F929F92AF92BF92CF92DF92FD
:10302000EF92FF920F931F93CF93DF9300D000D0C6
:10303000CDB7DEB77C01FC0101900020E9F73197A4
:103040008F01081B190BA12CB12CC12CD12CC0163F
:10305000D10680F4A8014C195D09B7016C0D7D1DE6
:1030600082EA92E00E947913C80ED91E8FEFA81A47
:10307000B80AEDCF46018091B205882369F1F701C6
:103080009701200F311F80E0E217F30719F09191AB
:103090008927FACF1F928F931F9283E28F9385EB3C
:1030A00097E09F938F931F9284E08F93CE010196B8
:1030B0007C019F938F930E940D2143E050E0B70164
:1030C00082EA92E00E9479134C018C0C9D1C0FB691
:1030D000F894DEBF0FBECDBF6AE082EA92E00E94A4
:1030E00010147C01E80CF91CBF92AF92FF92EF9292
:1030F0008AE997E09F938F9388ED95E09F938F9354
:103100000E9481172091B2050FB6F894DEBF0FBE62
:10311000CDBF211103C081E090E002C084E090E0C7
:10312000800F911FE816F906E9F0211103C081E034
:1031300090E002C084E090E0080F191F1F930F93E6
:1031400080E697E09F938F9388ED95E09F938F9310
:103150000E9498170F900F900F900F900F900F9064
:1031600080E001C081E00F900F900F900F90DF91F1
:10317000CF911F910F91FF90EF90DF90CF90BF9074
:10318000AF909F908F9008950F931F93CF93DF93ED
:10319000CDB7DEB7C058D1090FB6F894DEBF0FBE69
:1031A000CDBF9E0125573F4FC757DF4F48815981FB
:1031B000C958D04060E870E0CE0101960E943D21E0
:1031C00003E010E0CE0101960E940A18811103C0AD
:1031D00001501109B9F7C058DF4F0FB6F894DEBFA0
:1031E0000FBECDBFDF91CF911F910F910895CF9367
:1031F000DF93CDB7DEB72091B10330E82303C001E0
:1032000011249E01275F3F4F42E252E060E870E0E8
:103210008E549C4F0E94E1288091B103082E000C2F
:10322000990B019624E030E0B9010E94892880932F
:10323000B1039091B1038091B00398130BC08091BA
:10324000B003082E000C990B0196B9010E94892841
:103250008093B003DF91CF91089590E0FC01E45B8F
:10326000F84F2491FC01E85CF84F8491882399F091
:1032700090E0880F991FFC01E25DF84FA591B49191
:10328000FC01EC5DF84F859194918FB7F894EC9127
:10329000E22BEC938FBF0895EF92FF920F93CF93A1
:1032A000DF93C62F20911902265A40911702465AE1
:1032B000909118026AE5690F009120020E94C612DF
:1032C0007C0120911C02265A40911A02465A909184
:1032D0001B026AE5690F009121028C2F0E94C61221
:1032E000EC018091820390E0FC01EE0FFF1F8E0F36
:1032F0009F1FFC01E35AFC4F808186FD06C069E0F8
:1033000070E082E893E00E949B112091850330E0F9
:10331000F901EE0FFF1F2E0F3F1FF901E35AFC4F7B
:10332000808186FD06C068E070E085E893E00E9439
:103330009B11B70182E893E00E946611BE0185E807
:1033400093E00E94661160E070E080E191E0DF911F
:10335000CF910F91FF90EF900C948D0D60E080E085
:103360000C944C1960E086E00E94AA1660E087E0A9
:103370000E94AA1660E085E00E94AA1660E083E041
:103380000E94AA160E94AE1961E086E00C94AA166B
:10339000CF93DF93CDB7DEB78091DD069091DE0647
:1033A00002974CF4AE01475F5F4F67E077E087E13B
:1033B00097E00E94EC16DF91CF910895CF93DF93B1
:1033C00000D0CDB7DEB7789484B5826084BD84B573
:1033D000816084BD85B5826085BD85B5816085BD10
:1033E00080916E00816080936E00109281008091C8
:1033F0008100826080938100809181008160809350
:103400008100809180008160809380008091B10074
:1034100084608093B1008091B00081608093B0009F
:1034200080917A00846080937A0080917A00826033
:1034300080937A0080917A00816080937A008091F5
:103440007A00806880937A001092C10086E00E9422
:103450002D1989E00E942D1988E00E942D1960E045
:1034600086E00E94AA1660E089E00E94AA1660E049
:1034700088E00E94AA1687E00E942D1985E00E942C
:103480002D1983E00E942D197DE0E72E72E0F72EC2
:1034900000E010E0C8010E94DE26D7018D937D0177
:1034A0000F5F1F4F05311105A9F769E676E08DE042
:1034B00092E00E94E620892B21F169E676E08DE01A
:1034C00092E00E94EF2083E0809316021092170290
:1034D0009AEE9093180286E18093190210921A02D4
:1034E00090931B0280931C0281E080932002109233
:1034F000210210921D0210921E0210921F020E94C1
:10350000AE1480911602833080F410921D02109246
:103510001E0210921F0281E080932002109221026D
:1035200084E0809316020E94AE140E94B219E091CA
:10353000B202F091B30282E08083E091AE02F0919A
:10354000AF021082E091B002F091B10287E6808371
:103550001092BA02E091B602F091B70286E0808341
:10356000E091B402F091B502808180618083E091A6
:10357000B402F091B502808188608083E091B4024A
:10358000F091B502808180688083E091B402F0916F
:10359000B50280818F7D80839EE088E10FB6F8942C
:1035A000A895809360000FBE909360008FE491E037
:1035B0009F938F9385E591E09F938F9382E796E0A9
:1035C0009F938F9380EB93E09F938F930E94C418F7
:1035D0001092DC060E945E170FB6F894DEBF0FBE95
:1035E000CDBF34EBA32E35E0B32E48EDE42E45E0FD
:1035F000F42E53EC252E56E0352E64ED462E66E073
:10360000562EA8959091B0038091B103981709F1B7
:103610000091B00320E80203800111240E541C4FD6
:1036200023E0C22ED12CC8010E940A18811104C0C7
:1036300081E0C81AD108B9F78091B003082E000CB8
:10364000990B019664E070E00E9489288093B00392
:10365000D9CF1092D7051092D60582EA92E00E9447
:10366000CB138F3FAFEF9A0709F4B7C00A9729F43D
:1036700082EA92E00E94B713B0C000E010E00E941E
:103680006E106093AA027093AB028093AC02909389
:10369000AD02E091A202F091A3020284F385E02D35
:1036A00082EA92E0099597FD04C08A309105F9F409
:1036B00028C00E946E102091AA023091AB02409166
:1036C000AC025091AD02DC01CB01821B930BA40B29
:1036D000B50B2091A6023091A7024091A80250910B
:1036E000A90282179307A407B50798F20AC0F80148
:1036F000EE54FA4F82830F5F1F4F0F31110509F00F
:10370000BECF1093D5050093D405F801EE54FA4FBF
:103710001282012B09F461C082EA92E00E94CB136D
:103720000A9721F482EA92E00E94B7138091D405AF
:103730009091D505892B09F45EC0A114B10409F458
:103740005AC0BE016F5F7F4F84EB95E00E9441132A
:103750004C01892B09F44FC069807A8097E0C92E0B
:1037600097E0D92E00E010E0F60160817181A3019D
:10377000C4010E94FF20892BA9F5000F111F000F23
:10378000111FF801E95FF84F02811381D801ED9113
:10379000FC910190F081E02DC8010995882309F47E
:1037A0005FC08091B205882309F45AC08091D40586
:1037B0009091D5058430910508F5D801ED91FC91E3
:1037C0000280F381E02DC8010995882321F08091C2
:1037D000B305811185C00E94AE170E945E170E943A
:1037E00079140FCF0F5F1F4FF4E0CF0ED11C0A30BA
:1037F000110509F0B9CF00E011E0C8CFAC0143508A
:103800005109FA01EE54FA4F2281233229F05092E5
:10381000D7054092D605D1CF1282D12C20E030E0DE
:10382000F901EE54FA4F6281D6262F5F3F4F2417DD
:103830003507B0F340E150E060E070E08E549A4FFD
:103840000E94CB1F2D2D30E040E050E0621773073F
:103850008407950729F03092D7052092D605ADCF81
:10386000D801ED91FC910280F381E02DC80109950A
:10387000882361F08091B305882341F066E082EAF5
:1038800092E00E941014019709F03FC00E94AE1709
:10389000D801ED91FC91C480D5808091D4059091A0
:1038A000D505892BB9F0A114B104A1F0BE016F5F59
:1038B0007F4F84EB95E00E944113009759F02981D6
:1038C0003A81820F931FFC01019620812032D9F3A7
:1038D000BF0102C060E070E0C801F60109957DCF2C
:1038E00065E182EA92E00E941014019709F473CF17
:1038F000A6EAB6E0BF93AF93FF92EF920E94F4174F
:103900000F900F900F900F9066CFA9E8B6E0BF938D
:10391000AF93FF92EF920E94F4170F900F900F90C9
:103920000F90B4CF1092A5021092A40288EE93E0FB
:10393000A0E0B0E08093A6029093A702A093A80213
:10394000B093A90287ED91E09093A3028093A20225
:1039500085EC90E09093AF028093AE0284EC90E00F
:103960009093B1028093B00280EC90E09093B30208
:103970008093B20281EC90E09093B5028093B40200
:1039800082EC90E09093B7028093B60286EC90E0D0
:103990009093B9028093B8021092BB021092BC02BD
:1039A0001092BD021092BE02EFE3F3E01082128289
:1039B00011821382148215821682379683E0EB35CA
:1039C000F807A1F7809181038C30A0F491E0980F63
:1039D000909381038093820390E0FC01EE0FFF1F20
:1039E0008E0F9F1FFC01E35AFC4F88EB9BE09283F4
:1039F000818303C08FEF80938203809181038C3099
:103A0000A0F491E0980F909381038093850390E058
:103A1000FC01EE0FFF1F8E0F9F1FFC01E35AFC4FAE
:103A200088EB9BE09283818303C08FEF80938503B3
:103A30008FE598E0909389038093880386EA98E065
:103A400090938B0380938A0386E598E090938D038F
:103A500080938C0389E29AE090938F0380938E0386
:103A600080E598E090939103809390038CE598E033
:103A7000909393038093920387E498E09093950347
:103A80008093940388E09CE090939703809396033F
:103A900081E498E0909399038093980380E198E003
:103AA00090939B0380939A0388E398E090939D03FF
:103AB00080939C0382ED99E090939F0380939E03F3
:103AC00082E398E09093A1038093A00386EC97E0B3
:103AD0009093A3038093A20389E298E09093A503B7
:103AE0008093A40388E49CE09093A7038093A603AB
:103AF00082E298E09093A9038093A80388E99BE071
:103B00009093AB038093AA0389E198E09093AD036F
:103B10008093AC0388E69BE09093AF038093AE0361
:103B20001092B0031092B10381E08093B2058093AC
:103B3000B3051092D9061092D8061092DB061092A7
:103B4000DA068093DC0682E090E09093DE068093B4
:103B5000DD0686EA98E09093E0068093DF0683E234
:103B600097E09093E2068093E1068DE998E09093C8
:103B7000E4068093E30684E097E09093E606809362
:103B8000E50687E998E09093E8068093E70685EEDE
:103B900096E09093EA068093E9068EE898E0909389
:103BA000EC068093EB0683EC96E09093EE06809310
:103BB000ED0688E898E09093F0068093EF0684EA9B
:103BC00096E09093F2068093F1068FE798E0909349
:103BD000F4068093F30685E896E09093F6068093CA
:103BE000F50689E798E09093F8068093F70686E655
:103BF00096E09093FA068093F90680E798E0909318
:103C0000FC068093FB0684E496E09093FE06809386
:103C1000FD0689E698E0909300078093FF068DEDFE
:103C20009AE0909302078093010785E698E09093CD
:103C300004078093030782E497E09093060780933C
:103C4000050787ED98E0909308078093070784E1C4
:103C500091E090930A078093090785ED98E090938F
:103C60000C0780930B0782E191E090930E078093FD
:103C70000D078EEC98E09093100780930F0780E17A
:103C800091E090931207809311078AEC98E090934B
:103C90001407809313078EE091E0909316078093AA
:103CA000150785EC98E090931807809317078CE030
:103CB00091E090931A078093190780EC98E0909315
:103CC0001C0780931B078AE091E090931E07809366
:103CD0001D0789EB98E09093200780931F0788E0E9
:103CE00091E0909322078093210785EB98E09093D1
:103CF00024078093230786E091E090932607809322
:103D0000250781EB98E0909328078093270784E0AC
:103D100091E090932A07809329078CEA98E090938A
:103D20002C0780932B0782E091E090932E078093DD
:103D30002D070895EF920F931F93CF93DF93E80120
:103D400047FD02C034E001C034E1E42F440FFF0B13
:103D5000F7FF03C0F195E195F109E32E022F2E2F15
:103D6000AE010E943B23CE01DF91CF911F910F91B5
:103D7000EF900895A0E0B0E0E0ECFEE10C9458274D
:103D80005C016B017A016115710519F0FB019183EA
:103D90008083E114F10429F0C7010297839708F0AA
:103DA000F1C0E5012196F5011081812F90E00E947C
:103DB000DD20892B11F05E01F4CF1D3229F421960C
:103DC000F501118101E007C01B3221F4E5012296C3
:103DD000F501118100E0E114F10459F1F0E1EF1671
:103DE000F10461F41033E1F488818F7D883569F541
:103DF00019812296026070E1E72EF12C88E0E81626
:103E0000F10439F12CF4F2E0EF16F104C9F12AC003
:103E10008AE0E816F10479F0E0E1EE16F10411F51C
:103E200050E1E52EF12C812C912CA12C68E0B62ECE
:103E30002CC01033C9F23AE0E32EF12C4CEC842E66
:103E4000982CA82C4CE0B42E20C010E3E114F1040F
:103E5000A9F698E0E92EF12C812C912CA12C20E1DF
:103E6000B22E13C060E070E080E090E897010F2C64
:103E7000000C440B550B0E94042749015A0105C050
:103E8000812C912CA12C80E4B82E60E020E030E061
:103E9000A90127010F2C000C660877081E01E0ED30
:103EA000E10FEA3060F08FEB810F8A3110F4E9EC1A
:103EB00005C08FE9810F8A3128F5E9EAE10F8E2FDD
:103EC00090E08E159F05F4F467FD18C082169306E6
:103ED000A406B50690F0C301B2010E94F4269B012E
:103EE000AC012E0F311D411D511D21303105410501
:103EF000F0E85F0710F461E001C06FEF2196F10177
:103F00001081CCCF802F8170C114D10471F0662351
:103F100029F02197F601D183C08307C001FF19C0A2
:103F20002297F601D183C08314C067FF12C08111AC
:103F300005C02FEF3FEF4FEF5FE704C020E030E018
:103F400040E050E882E290E09093300780932F07A2
:103F500016C0882341F050954095309521953F4FEC
:103F60004F4F5F4F0CC057FF0AC082E290E0909322
:103F7000300780932F072FEF3FEF4FEF5FE7B90137
:103F8000CA0104C060E070E080E090E0CDB7DEB729
:103F9000E2E10C947427A6E0B0E0E1EDFFE10C94BF
:103FA00058275C016B017A016115710519F0DB017D
:103FB0008D939C93E114F10429F0C7010297839734
:103FC00008F0DCC03501BFEF6B1A7B0AF5011081E8
:103FD000812F90E00E94DD20892B11F05301F2CF58
:103FE0001D3249F43501F2E06F0E711CD5011196B6
:103FF0001C9101E009C01B3231F43501B2E06B0EB7
:10400000711CF501118100E0E114F10409F4C4C050
:10401000F0E1EF16F10489F4103399F5D3018C9196
:104020008F7D883509F0B2C011961C91B2E06B0EFD
:10403000711C026050E1E52EF12CEAE0EE16F1046D
:1040400009F4B0C0F0E1EF16F104D9F028E0E2166F
:10405000F10451F438E0E32EF12C88248A94982C52
:10406000A82C4FE1B42E13C06FEF7FEFCB01970167
:104070000F2C000C440B550B0E94042749015A01D8
:1040800006C088248A94982CA82C2FE0B22E7E8219
:104090006D8260E020E030E0A90127010F2C000CC8
:1040A000660877082D803E80E0EDE10FEA3060F091
:1040B0008FEB810F8A3110F4E9EC05C08FE9810F95
:1040C0008A3190F5E9EAE10F8E2F90E08E159F0579
:1040D0005CF56F3F09F182169306A406B506D8F089
:1040E000C301B2010E94F4262E2F30E040E050E0E0
:1040F00029833A834B835C83260F371F481F591F40
:1041000089819A81AB81BC81281739074A075B07EF
:1041100010F061E001C06FEFED81FE813196FE830A
:10412000ED83D1011C91BECFC114D10489F0662367
:1041300039F08D819E810197F6019183808308C0BB
:1041400001FF06C08D819E810297D6018D939C93BD
:1041500000FF07C050954095309521953F4F4F4F38
:104160005F4F67FF10C082E290E09093300780932A
:104170002F076FEF7FEF8FEF9FEF1BC060E070E0C6
:1041800080E090E016C0B901CA0113C010E3E11449
:10419000F10409F45FCF51CF103309F43FCF9AE017
:1041A000E92EF12C89E9882E982CA82C89E1B82ECB
:1041B0006ECF2696E2E10C94742791110C94A12500
:1041C000803219F089508550C8F70895FB01DC0151
:1041D0008D91059080190110D9F3990B0895FB0179
:1041E000DC0105900D920020E1F70895FC01059097
:1041F0000020E9F7809590958E0F9F1F0895FB0191
:10420000DC014150504030F08D910590801919F437
:104210000020B9F7881B990B0895AEE0B0E0E3E108
:10422000F1E20C9466270D891E898F89988D2EE006
:104230002C831A83098397FF02C080E090E80197DE
:104240009E838D83AE01455E5F4F698D7A8DCE0171
:1042500001960E9469214D815E8157FD0AC02F8120
:104260003885421753070CF49A01F801E20FF31F47
:1042700010822E96E4E00C948227AEE0B0E0E3E4F6
:10428000F1E20C9466278C01CA014EE04C831A833C
:10429000098377FF02C060E070E8FB013197FE837D
:1042A000ED83A901BC01CE0101960E9469214D81D7
:1042B0005E8157FD0AC02F813885421753070CF4E1
:1042C0009A01F801E20FF31F10822E96E4E00C949D
:1042D0008227ACE0B0E0EFE6F1E20C9458277C01D5
:1042E0006B018A01FC0117821682838181FFBDC1A7
:1042F000CE0101964C01F7019381F60193FD859162
:1043000093FF81916F01882309F4ABC1853239F4A1
:1043100093FD859193FF81916F01853229F4B70157
:1043200090E00E94BA25E7CF512C312C20E02032BA
:10433000A0F48B3269F030F4803259F0833269F4A2
:1043400020612CC08D3239F0803339F4216026C0D1
:104350002260246023C0286021C027FD27C030EDE3
:10436000380F3A3078F426FF06C0FAE05F9E300D31
:104370001124532E13C08AE0389E300D1124332EA1
:1043800020620CC08E3221F426FD6BC1206406C071
:104390008C3611F4206802C0883641F4F60193FD92
:1043A000859193FF81916F018111C1CF982F9F7DDE
:1043B0009554933028F40C5F1F4FFFE3F9830DC031
:1043C000833631F0833771F0833509F05BC022C04A
:1043D000F801808189830E5F1F4F44244394512C40
:1043E000540115C03801F2E06F0E711CF801A08075
:1043F000B18026FF03C0652D70E002C06FEF7FEF34
:10440000C5012C870E94AF252C0183012C852F77B5
:10441000222E17C03801F2E06F0E711CF801A08047
:10442000B18026FF03C0652D70E002C06FEF7FEF03
:10443000C5012C870E94A4252C012C852068222EE2
:10444000830123FC1BC0832D90E048165906B0F46D
:10445000B70180E290E00E94BA253A94F4CFF501CA
:1044600027FC859127FE81915F01B70190E00E94B2
:10447000BA2531103A94F1E04F1A51084114510411
:1044800071F7E5C0843611F0893639F5F80127FF58
:1044900007C060817181828193810C5F1F4F08C0CA
:1044A00060817181072E000C880B990B0E5F1F4FE6
:1044B0002F76722E97FF09C0909580957095619523
:1044C0007F4F8F4F9F4F2068722E2AE030E0A4016B
:1044D0000E94F225A82EA81844C0853729F42F7E03
:1044E000B22E2AE030E025C0F22FF97FBF2E8F36A2
:1044F000C1F018F4883579F0B4C0803719F08837E6
:1045000021F0AFC02F2F2061B22EB4FE0DC08B2D35
:104510008460B82E09C024FF0AC09F2F9660B92E70
:1045200006C028E030E005C020E130E002C020E114
:1045300032E0F801B7FE07C060817181828193810A
:104540000C5F1F4F06C06081718180E090E00E5FBC
:104550001F4FA4010E94F225A82EA818FB2DFF775B
:104560007F2E76FE0BC0372D3E7FA51450F474FECF
:104570000AC072FC08C0372D3E7E05C0BA2C372D0C
:1045800003C0BA2C01C0B52C34FF0DC0FE01EA0DEA
:10459000F11D8081803311F4397E09C032FF06C0DD
:1045A000B394B39404C0832F867809F0B39433FD99
:1045B00013C030FF06C05A2CB31418F4530C5B1808
:1045C000B32CB31468F4B70180E290E03C870E94FA
:1045D000BA25B3943C85F5CFB31410F43B1801C051
:1045E000312C34FF12C0B70180E390E03C870E9479
:1045F000BA253C8532FF17C031FD03C088E790E043
:1046000002C088E590E0B7010CC0832F867859F08E
:1046100031FF02C08BE201C080E237FD8DE2B701BD
:1046200090E00E94BA25A51438F4B70180E390E029
:104630000E94BA255A94F7CFAA94F401EA0DF11D0D
:104640008081B70190E00E94BA25A110F5CF3320F8
:1046500009F451CEB70180E290E00E94BA253A9465
:10466000F6CFF7018681978102C08FEF9FEF2C96DE
:10467000E2E10C9474274F925F926F927F929F9227
:10468000AF92BF92CF92DF92EF92FF920F931F9360
:10469000CF93DF93CDB7DEB729970FB6F894DEBF7F
:1046A0000FBECDBF6A01122FB02E2BE3201720F0D2
:1046B000FF24F394F00E02C0BCE3FB2E0F2D27E085
:1046C000AE014F5F5F4F0E94C924AC018981982FD2
:1046D0009970913031F0E1FC06C0E0FE06C090E236
:1046E00005C09DE203C09BE201C090E0EE2DE071A9
:1046F00083FF3CC0911102C083E001C084E08117B8
:1047000018F4212F281B01C020E0E1110BC0F60195
:10471000822F30E2882319F031938150FBCFC20EF3
:10472000D11C20E0992329F0D6019C93F601319603
:104730006F01C6010396E2FE0AC03EE4D6013C9337
:1047400041E411964C93119712963C9306C03EE6B5
:10475000F601308341E641833283FC01322F40E28F
:10476000332309F442C041933150FACF82FF44C051
:10477000911102C083E001C084E0811718F4212F59
:10478000281B01C020E0E1110BC0F601822F30E2AE
:10479000882319F031938150FBCFC20ED11C20E049
:1047A000992329F0D6019C93F60131966F01C60139
:1047B0000396E2FE0BC039E4D6013C933EE4119629
:1047C0003C93119736E412963C9307C039E6F60104
:1047D00030833EE6318336E63283FC01322F40E2FD
:1047E000332319F041933150FBCFFC01E20FF11D4F
:1047F00010828EEF9FEFB7C0F1E0911101C0F0E0A1
:104800006F2F70E01416150624F49A012F5F3F4FA6
:1048100002C021E030E0260F371FBB2029F06B2DAE
:1048200070E06F5F7F4F02C060E070E0260F371FBF
:10483000612F70E0261737071CF4121B212F01C0CF
:1048400020E03E2D387159F4D601322F60E2332337
:1048500019F06D933150FBCFC20ED11C20E0FF2325
:1048600031F0D6019C93B6016F5F7F4F6B01E11170
:104870000BC0F601922F30E3992319F03193915038
:10488000FBCFC20ED11C20E09F2D940F3A81782FD0
:104890007071A72E84FF03C0313309F491501916AB
:1048A00024F4993018F098E001C091E0E42F852FAE
:1048B00057FF02C0E0E080E06E2F782FE0E0F0E0EC
:1048C000AEE29A2E3A01691A71082A01461A570A6D
:1048D0000B2D10E01195019511096F3F8FEF7807AF
:1048E00029F4D6019C92C60101966C014617570720
:1048F00084F0661677066CF47F01E40CF51CA1E0E9
:10490000B0E0AC0FBD1FEA0EFB1ED7011196BC90A4
:1049100002C090E3B92E615071093196C60101962B
:104920007C016017710724F0D601BC926C01D5CFD1
:104930006417750741F4363320F4353321F4A110A0
:1049400002C081E3B82EF601B082F701822F90E217
:10495000882319F091938150FBCFF701E20FF11DED
:10496000108280E090E029960FB6F894DEBF0FBE6B
:10497000CDBFDF91CF911F910F91FF90EF90DF900E
:10498000CF90BF90AF909F907F906F905F904F902F
:104990000895283008F027E03327DA01990F311DF8
:1049A00087FD916000966105710539F432602E5FD4
:1049B0003D9330E32A95E1F708959F3F30F080382A
:1049C0007105610509F03C5F3C5F3D93913008F053
:1049D0008068911DDF93CF931F930F93FF92EF9207
:1049E000192F987F9695E92F96959695E90FFF27B1
:1049F000EE53FF4F99273327EE24FF24A701E70149
:104A000005900894079428F4360FE71EF81E491FF6
:104A1000511D660F771F881F991F0694A1F70590F7
:104A2000079428F4E70EF81E491F561FC11D770F83
:104A3000881F991F661F0694A1F70590079428F414
:104A4000F80E491F561FC71FD11D880F991F661FDB
:104A5000771F0694A1F70590079420F4490F561F7D
:104A6000C71FD81F990F661F771F881F0694A9F7C5
:104A700084911095177041F0D695C7955795479535
:104A8000F794E7941A95C1F7E8E6F0E0689415907A
:104A9000159135916591959105907FE27395E11897
:104AA000F10A430B560BC90BD009C0F7E10CF11EFC
:104AB000431F561FC91FD01D7EF4703311F48A9511
:104AC000E6CFE894015030F0080F0AF400270217EF
:104AD00008F4202F2395022F7A3328F079E37D9371
:104AE0002A95E9F710C07D932A9589F60694979543
:104AF0006795379517951794E118F10A430B560BF4
:104B0000C90BD00998F023957E9173957A3308F0FC
:104B100070E37C932013B8F77E9170617D9330F041
:104B2000839571E37D9370E32A95E1F71124EF906B
:104B3000FF900F911F91CF91DF91992787FD90955D
:104B40000895992788270895FC01059061507040C9
:104B50000110D8F7809590958E0F9F1F0895FC0146
:104B60006150704001900110D8F7809590958E0F9C
:104B70009F1F08950F931F93CF93DF93FB01238112
:104B800021FD03C08FEF9FEF28C022FF16C0468192
:104B90005781248135814217530744F4A081B181A4
:104BA0009D012F5F3F4F318320838C932681378176
:104BB0002F5F3F4F3783268310C0EB01092F182F3B
:104BC0000084F185E02D0995892BE1F68E819F8186
:104BD00001969F838E83812F902FDF91CF911F911C
:104BE0000F910895FA01AA27283051F1203181F15F
:104BF000E8946F936E7F6E5F7F4F8F4F9F4FAF4FE5
:104C0000B1E03ED0B4E03CD0670F781F891F9A1FF7
:104C1000A11D680F791F8A1F911DA11D6A0F711DAB
:104C2000811D911DA11D20D009F468943F912AE0B7
:104C3000269F11243019305D3193DEF6CF0108959F
:104C4000462F4770405D4193B3E00FD0C9F7F6CFD0
:104C5000462F4F70405D4A3318F0495D31FD405298
:104C6000419302D0A9F7EACFB4E0A695979587952E
:104C700077956795BA95C9F700976105710508950D
:104C80009B01AC010A2E06945795479537952795B9
:104C9000BA95C9F7620F731F841F951FA01D089551
:104CA000E89409C097FB3EF49095809570956195C6
:104CB0007F4F8F4F9F4F9923A9F0F92F96E9BB277C
:104CC0009395F695879577956795B795F111F8CFF8
:104CD000FAF4BB0F11F460FF1BC06F5F7F4F8F4F63
:104CE0009F4F16C0882311F096E911C0772321F059
:104CF0009EE8872F762F05C0662371F096E8862FF1
:104D000070E060E02AF09A95660F771F881FDAF747
:104D1000880F9695879597F9089597F99F6780E88A
:104D200070E060E008959FEF80EC089500240A94FD
:104D30001616170618060906089500240A94121676
:104D40001306140605060895092E0394000C11F4A9
:104D5000882352F0BB0F40F4BF2B11F460FF04C056
:104D60006F5F7F4F8F4F9F4F089557FD9058440FAF
:104D7000551F59F05F3F71F04795880F97FB991FBA
:104D800061F09F3F79F08795089512161306140677
:104D9000551FF2CF4695F1DF08C016161706180604
:104DA000991FF1CF86957105610508940895E894DF
:104DB000BB2766277727CB0197F90895F999FECF8E
:104DC00092BD81BDF89A992780B50895262FF9994B
:104DD000FECF1FBA92BD81BD20BD0FB6F894FA9ADE
:104DE000F99A0FBE01960895DB018F939F930E945D
:104DF0004527BF91AF91A29F800D911DA39F900D5C
:104E0000B29F900D11240895A1E21A2EAA1BBB1B7C
:104E1000FD010DC0AA1FBB1FEE1FFF1FA217B30786
:104E2000E407F50720F0A21BB30BE40BF50B661F9C
:104E3000771F881F991F1A9469F760957095809560
:104E400090959B01AC01BD01CF010895052E97FB04
:104E50001EF400940E943D2757FD07D00E940427AE
:104E600007FC03D04EF40C943D27509540953095A7
:104E700021953F4F4F4F5F4F0895909580957095C6
:104E800061957F4F8F4F9F4F08950E948F27A59F59
:104E9000900DB49F900DA49F800D911D1124089535
:104EA000B7FF0C9445270E944527821B930B08955A
:104EB0002F923F924F925F926F927F928F929F922A
:104EC000AF92BF92CF92DF92EF92FF920F931F9318
:104ED000CF93DF93CDB7DEB7CA1BDB0B0FB6F894C9
:104EE000DEBF0FBECDBF09942A88398848885F8409
:104EF0006E847D848C849B84AA84B984C884DF807A
:104F0000EE80FD800C811B81AA81B981CE0FD11D5D
:104F10000FB6F894DEBF0FBECDBFED010895A29F7E
:104F2000B001B39FC001A39F700D811D1124911D7D
:104F3000B29F700D811D1124911D08955058BB27FB
:104F4000AA270E94B6270C94A4260E94962638F021
:104F50000E949D2620F039F49F3F19F426F40C940A
:104F600093260EF4E095E7FB0C948D26E92F0E9422
:104F7000B52658F3BA17620773078407950720F020
:104F800079F4A6F50C94D7260EF4E0950B2EBA2FE3
:104F9000A02D0B01B90190010C01CA01A00111243F
:104FA000FF27591B99F0593F50F4503E68F11A16EB
:104FB000F040A22F232F342F4427585FF3CF46957C
:104FC00037952795A795F0405395C9F77EF41F169E
:104FD000BA0B620B730B840BBAF09150A1F0FF0F68
:104FE000BB1F661F771F881FC2F70EC0BA0F621F54
:104FF000731F841F48F4879577956795B795F79544
:105000009E3F08F0B0CF9395880F08F09927EE0FD8
:105010009795879508950E941F280C94A4260E94B6
:105020009D2658F00E94962640F029F45F3F29F013
:105030000C948D2651110C94D8260C9493260E9422
:10504000B52668F39923B1F3552391F3951B550BBE
:10505000BB27AA2762177307840738F09F5F5F4F4B
:10506000220F331F441FAA1FA9F335D00E2E3AF08A
:10507000E0E832D091505040E695001CCAF72BD0A2
:10508000FE2F29D0660F771F881FBB1F26173707F3
:105090004807AB07B0E809F0BB0B802DBF01FF2725
:1050A00093585F4F3AF09E3F510578F00C948D264F
:1050B0000C94D8265F3FE4F3983ED4F38695779519
:1050C0006795B795F7959F5FC9F7880F911D9695DE
:1050D000879597F90895E1E0660F771F881FBB1F3A
:1050E000621773078407BA0720F0621B730B840BE7
:1050F000BA0BEE1F88F7E0950895991B79E004C07C
:10510000991F961708F0961B881F7A95C9F7809506
:10511000089597FB072E16F4009407D077FD09D069
:105120000E94A42807FC05D03EF4909581959F4FDE
:105130000895709561957F4F08950E948F27B7FF5E
:105140000895821B930B0895AA1BBB1B51E107C056
:10515000AA1FBB1FA617B70710F0A61BB70B881F07
:10516000991F5A95A9F780959095BC01CD01089596
:10517000EE0FFF1F0590F491E02D099481E090E07F
:10518000F8940C940D29FB01DC018D9181341CF005
:105190008B350CF4805E619161341CF06B350CF43E
:1051A000605E861B611189F3990B0895FC01819162
:1051B000861721F08823D9F7992708953197CF01D1
:1051C0000895AEE0B0E0E7EEF8E20C9466278C01BB
:1051D000CA0146E04C831A83098377FF02C060E06E
:1051E00070E8FB013197FE83ED83A901BC01CE017C
:1051F00001960E9469214D815E8157FD0AC02F8171
:105200003885421753070CF49A01F801E20FF31F97
:0E52100010822E96E4E00C948227F894FFCFD3
:10521E0049016D01770181018B019901A501AF0152
:10522E00B901C301CD014552524F52005741524E62
:10523E0000494E464F004445425547004E4F4E459D
:10524E0000260121011C011601710261025802356E
:10525E00062606170600000000DE05DC05630F3289
:10526E002E302E3400457965647269766F6D6174E7
:10527E0069630007000500030000000000DE05DC86
:10528E0005660B00000000DE05DC050B0D000000BE
:10529E0000DE05DC05880C00000000DE05DC05F2F2
:1052AE00080F06B60400000000DE05DC05880EAD12
:1052BE000900000000DE05DC05800A00000000DEAB
:1052CE0005DC05720F00000000DE05DC058D0D000B
:1052DE00000000E205E005C80F00000000E605E44E
:1052EE00051B100000000010147913A8135714D9D1
:1052FE0013B713CB13656E61626C656400646973DA
:06530E0061626C656400A1
:00000001FF
